:020000040800F2
:10000000D01C0020C901000877180008FD15000861
:1000100075180008CF020008391E00080000000013
:100020000000000000000000000000007B18000835
:100030001303000800000000791800087D1800086C
:10004000E3010008E3010008E3010008E301000800
:10005000E3010008E3010008E3010008E3010008F0
:10006000E3010008E3010008E3010008E3010008E0
:10007000D1020008DD020008E3010008E3010008E6
:10008000E3010008E3010008E3010008E3010008C0
:10009000E3010008E3010008E3010008E3010008B0
:1000A000E3010008E3010008E3010008E3010008A0
:1000B000E3010008E3010008E3010008E301000890
:1000C000E3010008E3010008E3010008E301000880
:1000D000E3010008E3010008E30100082D1E000809
:1000E000E3010008E3010008E301000800F002F862
:1000F00000F05AF80AA090E8000C82448344AAF168
:100100000107DA4501D100F04FF8AFF2090EBAE865
:100110000F0013F0010F18BFFB1A43F0010318473B
:10012000A82E0000C82E00000A444FF0000C10F862
:10013000013B13F0070408BF10F8014B1D1108BF65
:1001400010F8015B641E05D010F8016B641E01F805
:10015000016BF9D113F0080F1EBF10F8014BAD1C55
:100160000C1B09D16D1E58BF01F801CBFAD505E073
:1001700014F8016B01F8016B6D1EF9D59142D6D3CD
:10018000704700000023002400250026103A28BFF5
:1001900078C1FBD8520728BF30C148BF0B607047F9
:1001A0001FB51FBD10B510BD00F058F81146FFF780
:1001B000F7FF02F0C7F900F076F803B4FFF7F2FF9B
:1001C00003BC00F07DF8000009488047094800475B
:1001D000FEE7FEE7FEE7FEE7FEE7FEE7FEE7FEE7F7
:1001E000FEE7FEE704480549054A064B7047000054
:1001F000DF180008ED000008D0160020D01C0020F9
:10020000D0180020D01800204FF0000200B513468F
:1002100094469646203922BFA0E80C50A0E80C5026
:10022000B1F12001BFF4F7AF090728BFA0E80C50D7
:1002300048BF0CC05DF804EB890028BF40F8042BD0
:1002400008BF704748BF20F8022B11F0804F18BF3D
:1002500000F8012B7047704770477047754600F0F3
:100260002BF8AE4605006946534620F00700854648
:1002700018B020B5FFF7B6FFBDE820404FF00006EC
:100280004FF000074FF000084FF0000B21F007017E
:10029000AC46ACE8C009ACE8C009ACE8C009ACE8C1
:1002A000C0098D46704710B50446AFF30080204664
:1002B000BDE81040FFF781BF004870476C16002072
:1002C00001491820ABBEFEE7260002007047FEE79A
:1002D000014800F091B8000028160020014800F005
:1002E0008BB80000E415002030B590F84050012490
:1002F000AC40C56B6C60046863604368102B036896
:1003000003D099600068C26030BD9A600068C16027
:1003100030BD704772B6FEE710B590F8211000228C
:10032000022905D00421816380F82020012010BD1E
:1003300001680B6823F00E030B6001680B6823F063
:1003400001030B6090F84030C46B012101FA03F304
:10035000636080F8211080F82020104610BD000056
:1003600010B590F821100024022903D004218163E4
:1003700001243DE001680A6822F00E020A6001686B
:100380000A6822F001020A601A4A0168914201D10A
:10039000012121E0174A1432914201D110211BE0C2
:1003A000144A2832914201D1891515E0114A3C3294
:1003B000914201D189140FE00E4A5032914202D18C
:1003C0004FF4803108E00B4A6432914202D14FF47D
:1003D000801101E04FF08071064A083A5160012116
:1003E00080F82110002180F82010416B01B188476E
:1003F000204610BD080002402DE9F05FC16B0C687B
:1004000001680B68D0F840C0042202FA0CF2494D92
:10041000DFF824A1494E4A4FDFF828B1DFF828E180
:1004200022422CD05A072AD50A68920603D40A68B9
:1004300022F004020A600168A94201D1042219E0F5
:10044000514501D1402215E0B14202D14FF4806202
:1004500010E0B94202D14FF480420BE0594502D17D
:100460004FF4802206E0714502D14FF4800201E092
:100470004FF080622F4908394A60C16A3BE04FF073
:10048000020808FA0CF818EA040F4FF000094FF0C0
:10049000010235D05FEA837832D50B689B0605D41C
:1004A0000B6823F00A030B6080F821200168A94241
:1004B00001D1022219E0514501D1202215E0B142BB
:1004C00002D14FF4007210E0B94202D14FF4005251
:1004D0000BE0594502D14FF4003206E0714502D1DC
:1004E0004FF4001201E04FF00072124908394A60DF
:1004F00080F82090816A00291AD0BDE8F05F084793
:10050000082505FA0CF5254212D01B0710D50B68FB
:1005100023F00E030B6090F84010C36B02FA01F158
:100520005960826380F8212080F82090016BE2E717
:10053000BDE8F09F080002401C000240300002406D
:1005400044000240580002406C00024030B528B31D
:1005500008C8134914221944B1FBF2F18900C163A0
:1005600010498163022141771A6843F6F0718A438A
:10057000D0E900142143D0E902452C43214304690A
:1005800021434469214384692143114319600021B7
:100590004163012242770177084630BD012030BD1A
:1005A000F8FFFDBF0000024070B5044690F820003F
:1005B000002501280CD0012084F8200094F8216047
:1005C0000020012E06D084F820000225284670BDA8
:1005D000022070BD022684F82160A06320680668AE
:1005E00026F0010606602046FFF77EFEE06A00283E
:1005F0002068016802D041F00E0106E021F00401FC
:1006000001602068016841F00A010160206801680A
:1006100041F001010160D9E770B5044600F004F92A
:100620000546601C02D004480078044400F0FCF841
:10063000401BA042FAD370BD640A00202DE9F84F98
:10064000DFF8B8910024A9F1040B23460F2709F124
:10065000040AABF1040EC9E00125A5402A40AA42D4
:100660007DD1674ED1F804C0ACEB0608B44532D05A
:1006700014DCBCF1030F3AD009DCBCF1000F2AD026
:10068000BCF1010F1CD0BCF1020F31D11DE0BCF157
:10069000110F17D0BCF1120F2AD119E0B8F5881F3D
:1006A00019D006DCB8F5803F15D0B8F5801F1FD1F2
:1006B00011E0B8F5001F0ED0B8F5041F18D10AE0FC
:1006C000CB6815E0CB681B1D12E0CB6808330FE048
:1006D000CB680C330CE08B682BB1012B4FF0080377
:1006E00003D0456104E0042302E0056100E000233B
:1006F000FF2A01D8064601E000F104064FEA84050E
:1007000001D9A5F12005D6F8008007FA05FC28EAF2
:100710000C0803FA05F548EA0508C6F800804D689C
:10072000ED0062D5374DAE6946F00106AE61AD69A8
:1007300024F0030605F001050095334D06EB050C8A
:10074000DCF80850A607360F07FA06F825EA080570
:10075000DFF8B880404503D14FF0000817E044E0CF
:10076000DFF8AC80404502D14FF001080FE0DFF820
:10077000A480404502D14FF0020808E0DFF89880DD
:10078000404502D14FF0030801E04FF0040808FA99
:1007900006F848EA0508CCF808804D68D9F80060EA
:1007A000ED024D4601D5164300E096432E604D689C
:1007B000DAF80060AD02554601D5164300E09643D5
:1007C0002E604D68DBF80060AD035D4601D5164331
:1007D00000E096432E604D68DEF80060ED0375463C
:1007E00001D5164300E096432E60641C0D682A462E
:1007F000E5407FF431AFBDE8F88F00000804014008
:1008000000001110001002400000014000080140EB
:10081000000C0140001001400014014080680840B5
:1008200000D0012070470000014880687047000038
:10083000640A002002488168027811448160704790
:10084000640A0020074810B5016841F010010160FA
:10085000032000F075F80F2000F006F800F024F8EF
:10086000002010BD0020024070B50D4D04464FF42D
:100870007A712878B1FBF0F00A490968B1FBF0F011
:1008800000F0DCFA48B9102C07D200222146501E95
:1008900000F036F800206C6070BD012070BD0000D3
:1008A000640A0020700A00200C4808B5816941F0F4
:1008B00001018161816901F001010091C16941F08B
:1008C0008051C161C06900F08050009004484168C7
:1008D00021F0E06141F00071416008BD001002406C
:1008E00000000140002809DB00F01F0201219140B7
:1008F0004009800000F1E020C0F8001170470000BE
:10090000F0B40E4B1B680C46C3F30223C3F107057A
:10091000042D00D90425191D072901D2002300E068
:10092000DB1E012606FA05F1491E214099409E4032
:10093000761E16403143F0BC01F07FBA0CED00E0AA
:10094000064900F0070208684FF6FF03184040EA26
:100950000220034A10430860704700000CED00E0DD
:100960000000FA052DE9F0470F46050061D0434E1F
:10097000306800F00700B84209D2306820F0070064
:1009800038433060306800F00700B84251D1286821
:100990003B4C810712D5400703D5606840F4E06006
:1009A00060602878000703D5606840F4605060609C
:1009B0006068A96820F0F000084360602878C007EC
:1009C00028D06868012810D02168022810D0890733
:1009D00000292EDA616821F0030101436160FFF70D
:1009E00023FF804641F288390DE021688903EFE753
:1009F0008901EDE7FFF718FFA0EB0801494502D98F
:100A00000320BDE8F0876068696800F00C00B0EB77
:100A1000810FEFD1306800F00700B8420BD9306881
:100A200020F0070038433060306800F00700B8421B
:100A300001D00120E5E72878400705D56068E9681E
:100A400020F4E060084360602878000706D56068FD
:100A5000296920F4605040EAC100606000F038F875
:100A60006168084AC1F30311515CC8400649086037
:100A700006480068FFF7F8FE0020C2E700200240A9
:100A800000100240AE2F0008700A0020680A002003
:100A90000448054900684968044AC1F30221515CD1
:100AA000C8407047700A002000100240BE2F0008A6
:100AB0000448054900684968044AC1F3C221515CF1
:100AC000C8407047700A002000100240BE2F000886
:100AD0000E4A51680E4801F00C03042B11D0082B6C
:100AE0000FD10C48C1F38343C903C05C0AD55168D8
:100AF000084AC1F34041921E515C054A5043B0FB85
:100B0000F1F070470449484370470000001002406C
:100B100000127A009E2F000800093D002DE9F84FD1
:100B2000040070D02078C04DC00749D06868C0F379
:100B30008100012807D06868C0F38100022809D12C
:100B40006868C00306D52868800339D56068002826
:100B5000E7D035E06068B0F5803F0BD010B1B0F55C
:100B6000A02F11D0286820F480302860286820F455
:100B7000802002E0286840F480302860606890B1EE
:100B8000FFF752FE06460AE0286840F480202860FD
:100B9000F0E700BFFFF748FE801B642873D8286881
:100BA0008003F7D50CE0FFF73FFE064605E000BFE7
:100BB000FFF73AFE801B6428F0D828688003F7D43A
:100BC00020789A4E80074FF001094FF0000839D580
:100BD000686810F00C0F07D06868C0F38100022825
:100BE00009D16868C00306D42868800714D5206935
:100BF000012808D110E02069B0B1C6F80090FFF7D5
:100C000013FE074605E00AE1FFF70EFEC01B0228AF
:100C1000C4D828688007F7D52868616920F0F800F3
:100C200040EAC10028600DE0C6F80080FFF7FCFD37
:100C3000074604E0FFF7F8FDC01B022823D8286808
:100C40008007F7D4207800072CD57948A169D9B15D
:100C5000C0F80090FFF7E8FD074604E0FFF7E4FD69
:100C6000C01B02280FD8686A8007F7D571484FF477
:100C7000FA510068B0FBF1F0009000BF0098411EEF
:100C80000091FAD20EE080E0C0F80080FFF7CCFDC2
:100C9000074604E0FFF7C8FDC01B022875D8686A44
:100CA0008007F7D42078400760D5E8690027C000A6
:100CB00008D4E86940F08050E861E869012700F055
:100CC000805000905C480168C90513D401688346D0
:100CD00041F480710160FFF7A7FD824606E000BF86
:100CE000FFF7A2FDA0EB0A0064284ED8DBF8000055
:100CF000C005F5D5E06801280AD008B1052813D051
:100D0000286A20F001002862286A20F0040002E02E
:100D1000286A40F001002862E06841F2883B98B1FF
:100D2000FFF782FD82460BE0286A40F0040028624B
:100D3000EEE700BFFFF778FDA0EB0A0159455AD84E
:100D4000286A8007F6D50CE0FFF76EFD824605E0C5
:100D5000FFF76AFDA0EB0A0159454CD8286A8007C5
:100D6000F6D41FB1E86920F08050E861E06988B3EB
:100D70006968C1F38101022944D00228C6F8608065
:100D800004D0FFF751FD044638E034E0FFF74CFD96
:100D9000074604E0FFF748FDC01B02282BD828684F
:100DA0008001F7D4206AB0F5803F05D16868A1685A
:100DB00020F4003008436860D4E9080108436968FA
:100DC00021F4741108436860C6F86090FFF72CFDA9
:100DD000044606E025E000BFFFF726FD001B0228C1
:100DE00009D828688001F7D51BE000BFFFF71CFD7C
:100DF000001B022802D90320BDE8F88F2868800173
:100E0000F4D40EE00128F7D06868226A00F480313B
:100E1000914204D1616A00F47010884201D001202F
:100E2000EAE70020E8E7000000100240000042422C
:100E300080044242700A00200070004010B5401E3D
:100E4000B0F1807F01D3012010BD4FF0E02460613C
:100E50000F21601700F0F1FF0020A0610720206142
:100E6000002010BD10B590F83C20012A22D00122AC
:100E700080F83C20CA688C6822F4407222434C6897
:100E800022F4806222430C6822F4006222430C693F
:100E900022F4805222434C6922F400522243C96951
:100EA000002322F480420A4301684A6480F83C30FF
:100EB000002010BD022010BD70B590F83C20012A22
:100EC00026D0012480F83C40022280F83D200368AF
:100ED0005A689D6822F070060A6832435A600D4BCA
:100EE00002689A4208D0B2F1804F05D00A4B9A426C
:100EF00002D00A4B9A4204D1496825F08003194375
:100F0000916080F83D40002180F83C10084670BD9B
:100F1000022070BD002C0140000400400008004089
:100F200010B586B000210091019102910391234BED
:100F300002682349022423489A420AD18A6942F06E
:100F400004028A61896901F0040104914FF470611F
:100F50002CE0B2F1804F20D01B4B9A422CD18A69F1
:100F600042F004028A618A6902F0040204928A69EA
:100F700042F008028A618969039401F00801049132
:100F8000C021CDE900146946FFF758FB0320CDE9E5
:100F9000000469460D4803940CE08A6942F004029B
:100FA0008A61896901F0040104910F21CDE90014DF
:100FB00069460394FFF742FB06B010BD002C0140C8
:100FC000001002400008014000040040000C0140F5
:100FD00070B5044690F83C0000260D4601280FD05D
:100FE000012084F83C006AB1042A1DD0082A2FD0C1
:100FF0000C2A3FD00126002084F83C00304670BD0A
:10100000022070BD206800F0B5FC2068816941F0C5
:10101000080181612068816921F0040181612068F3
:1010200081692A69114311E0206800F0CBFC206837
:10103000816941F4006181612068816921F48061E6
:101040008161206881692A6941EA02218161D2E7D0
:10105000206800F0E3FC2068C16941F00801C1612B
:101060002068C16921F00401C1612068C1692A6951
:10107000114311E0206800F0FDFC2068C16941F4D3
:101080000061C1612068C16921F48061C16120688B
:10109000C1692A6941EA0221C161ACE710B50400C7
:1010A00003D094F83D0010B107E0012010BD0020EE
:1010B00084F83C00204600F01FF8022084F83D0030
:1010C000211D206800F00CFC012084F8460084F803
:1010D0003E0084F83F0084F8400084F8410084F822
:1010E000420084F8430084F8440084F8450084F802
:1010F0003D00002010BD000008B5124A01681248EA
:10110000914207D1816941F400618161806900F4F5
:10111000006014E0B1F1804F0AD00C4A91420FD127
:10112000C16941F00201C161C06900F0020006E03E
:10113000C16941F00101C161C06900F00100009086
:1011400008BD0000002C01400010024000040040D7
:1011500010B50446022249B104290ED0082913D043
:1011600094F84100012816D0012010BD94F83E00EB
:101170000128F9D184F83E200FE094F83F000128BF
:10118000F2D184F83F2008E094F840000128EBD128
:1011900084F8402001E084F841200122206800F01A
:1011A000DBFB0F492068884203D1426C42F40042C5
:1011B00042642068884208D0B0F1804F05D00949C8
:1011C000884202D00849884204D1816801F00701B1
:1011D000062903D0016841F001010160002010BD23
:1011E000002C014000040040000800407047704798
:1011F000F8B5016804460868CA684B6910F00F0F1B
:101200004FF0000559D003F0010602F49077374300
:1012100065D0C10705D0D10503D5616C41F001014E
:101220006164410705D5D90703D0616C41F0020123
:101230006164810705D5D90703D0616C41F00401D1
:101240006164010707D502F02001314303D0616CCE
:1012500041F008016164616C00293AD0800604D530
:10126000900602D5204600F0DBFC20684069616CE6
:10127000C0F38010090700D460B3204600F09BFC47
:1012800020684069400621D52068143050E8001FCE
:1012900021F0400140E80012002AF5D1E06BA8B12E
:1012A0006D494163E06BFFF75BF8002811D0E06BFC
:1012B000416B01B0BDE8F040084783060FD59306A7
:1012C0000DD52046BDE8F84000F0AABC2046FFF747
:1012D0008EFFF8BD2046FFF78AFF6564F8BD266BD8
:1012E0002023012E7CD1C6067AD5D60678D508688B
:1012F0004868009048694FF00206400640D5E16B0F
:10130000086840680004000CE8D0A28D8242E5D94C
:10131000E085886920282DD020680C3050E8001F17
:1013200021F4807140E80012002AF5D120681430C1
:1013300050E8001F21F0010140E80012002AF5D119
:101340002068143050E8001F21F0400140E80012EE
:10135000002AF5D184F84230256320680C3050E82B
:10136000001F21F0100140E80012002AF5D1E06BC7
:10137000FEF7D2FF6663A08DE18D401A81B22AE0AC
:10138000A08DE18D401A81B2E08D0028A6D0002901
:10139000A4D022680C3252E8000F20F4907042E88A
:1013A0000007002FF5D12068143050E8002F22F0FC
:1013B000010240E80027002FF5D184F84230256370
:1013C00020680C3050E8002F22F0100240E8002383
:1013D000002BF5D166632046FFF708FFF8BDFFE755
:1013E00005062BD5150629D594F841002128F5D1FD
:1013F000A068B0F5805F01D12069B0B1206A411CBE
:101400002162216800784860E08C401E0004000CD6
:10141000E084E3D12068C16821F08001C1602068C8
:10142000C16841F04001C160D8E7206A0088C0F37C
:1014300008004860206A801C2062E5E74006CDD5A0
:101440005006CBD5CA68204622F04002CA6084F814
:10145000413000F0D2F8C1E7B91A000870B50400B5
:1014600004D094F84100002510B106E0012070BDC1
:1014700084F84050204600F023F8242084F84100EE
:101480002068C16821F40051C160204600F02AFCA8
:101490002068016921F4904101612068416921F0CF
:1014A0002A0141612068C16841F40051C16065644E
:1014B000202084F8410084F842006563002070BD5C
:1014C000F0B585B00024064600940194029403947C
:1014D00000682C49884252D12B48C16941F48021CF
:1014E000C161C16901F480210491816941F0080161
:1014F00081618069254D00F0080004904FF4806000
:101500000090022001900320039069462846FFF7CF
:1015100095F8E814CDE90004694628460294FFF7DF
:101520008DF81C4D1A488027C5E90004C5E902471B
:101530002C616C61AC612846EC61FFF707F808B1DB
:10154000FEF7E8FEF5636E621148134D143801C5CD
:10155000102091C5104845F810496C61AC61EC61F0
:10156000FEF7F4FF08B1FEF7D5FEB5630022114681
:1015700027206E62FFF7C4F92720FFF7B3F905B003
:10158000F0BD00000048004000100240000C014087
:1015900030000240E41500202816002090F8423068
:1015A000202B01D00220704721B11AB10023036320
:1015B00000F0F4BB0120704700680C49884213D149
:1015C0000B488168491C816000F10C010A78427166
:1015D0004A78C2708A780271C978817100F10C0171
:1015E00004220448FFF7DABF7047000000480040BB
:1015F000000000204C0B002070477047FEE7000001
:1016000000B585B00020019003901248816941F037
:1016100020018161816901F020010491816941F01B
:1016200004018161816901F004010491816941F043
:10163000080181618069694600F0080004904FF458
:1016400080500090022002900348FEF7F7FF05B09B
:1016500000BD000000100240000C014010B592B027
:1016600000240F941C2168461094FEF7CDFD202124
:1016700007A8FEF7C9FD2D482B49016040F29F5194
:10168000C0E9011440F2E731C0E903144461846108
:10169000FFF704FD08B172B6FEE70F940FA92348C7
:1016A0001094FFF709FC08B172B6FEE76020CDE99F
:1016B00000040294039404940594002269461B4894
:1016C0000694FFF785FC08B172B6FEE7042269466E
:1016D0001648FFF77DFC08B172B6FEE7082269469E
:1016E0001248FFF775FC08B172B6FEE70C22694696
:1016F0000E48FFF76DFC08B172B6FEE70794089438
:1017000009944FF400500A94CDE90B4007A907480B
:101710000E94FFF7A7FB08B172B6FEE70348FFF788
:10172000FFFB12B010BD0000002C0140740A002025
:1017300010B58AB0002407941C2168460894FEF76F
:1017400063FD22484FF08041016040F29F51C0E9A3
:10175000011440F2E731C0E903148461FFF79EFCF5
:1017600008B172B6FEE7079407A918480894FFF776
:10177000A3FB08B172B6FEE76020CDE90004029435
:101780000022694611480494FFF722FC08B172B6A2
:10179000FEE7042269460D48FFF71AFC08B172B64D
:1017A000FEE7082269460948FFF712FC08B172B645
:1017B000FEE70C2269460548FFF70AFC08B172B63D
:1017C000FEE70248FFF7ACFB0AB010BDBC0A0020E0
:1017D00010B58AB0002407941C2168460894FEF7CF
:1017E00013FD23482149016040F29F51C0E90114D3
:1017F00040F2E731C0E903148461FFF74FFC08B100
:1018000072B6FEE7079407A919480894FFF754FB3E
:1018100008B172B6FEE76020CDE900040294002210
:10182000694613480494FFF7D3FB08B172B6FEE78C
:10183000042269460E48FFF7CBFB08B172B6FEE7FB
:10184000082269460A48FFF7C3FB08B172B6FEE7F3
:101850000C2269460648FFF7BBFB08B172B6FEE7EB
:101860000348FFF75DFB0AB010BD00000004004014
:10187000040B0020FEE7FEE770477047FEF7DABF73
:1018800030B58FB028216846FEF7BEFC14210AA8A7
:10189000FEF7BAFC01210804CDE9001000240294EF
:1018A00002250491CDE907504FF4E01009906846F5
:1018B000FFF734F908B172B6FEE70F20CDE90A054B
:1018C0004FF48060CDE90C4002210AA80E94FFF786
:1018D00049F8002801D072B6FEE70FB030BD70475E
:1018E000F0B50268194B1A4C1A4D4FF080479842D8
:1018F00005D0B84203D0A04201D0A84203D122F0C3
:1019000070064A683243984205D0B84203D0A042DC
:1019100001D0A84203D122F44074CA6822434C6922
:1019200022F08002224302608A68C2620A688262F0
:10193000984201D109690163012141610169C90727
:1019400003D0016921F001010161F0BD002C0140CB
:10195000000400400008004010B501F01F03012101
:10196000046A99408C430462016A9A4011430162FF
:1019700010BD000030B5036A026A22F00102026263
:101980004268846924F073050C682C4323F0020537
:101990008B682B430A4DA8420BD123F00805CB6876
:1019A00022F440722B434D6923F0040315438A69E6
:1019B0002A434260846149684163036230BD00008C
:1019C000002C014030B5026A036A23F01003036261
:1019D000436884690D6824F4E64444EA05248D686C
:1019E00022F0200242EA05120B4DA8420ED1CD682A
:1019F00022F0800242EA05124D6923F4406343EA73
:101A000085038D6922F0400243EA850343608461C7
:101A100049688163026230BD002C014030B5036A21
:101A2000026A22F4807202624268C46923F400737D
:101A300024F073050C682C438D6843EA05230C4D94
:101A4000A8420ED1CD6823F4006343EA05234D6913
:101A500022F4405242EA05128D6923F4806342EA7F
:101A600005124260C4614968C163036230BD000071
:101A7000002C014030B5046A026A22F480520262EE
:101A80004268C3690D6823F4E64343EA05238D6881
:101A900024F4005444EA0534064DA84204D14D69AB
:101AA00022F4804242EA85124260C36149680164BF
:101AB000046230BD002C014010B5406A0021C18590
:101AC000C184FFF794FB10BD70B5446A206840697B
:101AD00094F84110C0F3C0100025212904D118B199
:101AE000E584204600F08EF82068406994F84210A2
:101AF000C0F38010222904D118B1E585204600F0FA
:101B00005AF8606C40F0100060642046FFF76FFBED
:101B100070BD10B50146406A096809684FF00002BF
:101B200089062ED4C28501680C3151E8003F23F4A8
:101B3000807341E80034002CF5D10168143151E87C
:101B4000003F23F0010341E80034002CF5D1016887
:101B5000143151E8003F23F0400341E80034002CE9
:101B6000F5D1202180F84210016B012909D10168CB
:101B70000C3151E8003F23F0100341E80034002C01
:101B8000F5D14263016B012902D0FFF715FD10BDAD
:101B9000818DFFF72BFB10BD10B5406A0121416319
:101BA000016B012902D0FFF727FD10BD818D490887
:101BB000FFF71CFB10BD01680C3151E8002F22F427
:101BC000907241E80023002BF5D10168143151E8EF
:101BD000002F22F0010241E80023002BF5D1016B18
:101BE000012909D101680C3151E8002F22F01002BF
:101BF00041E80023002BF5D1202180F8421000217C
:101C00000163704701680C3151E8002F22F0C002D7
:101C100041E80023002BF5D1202180F841107047C6
:101C200008B590F84210222901D0022008BD826830
:101C30004FF480539A4201D1016921B1816A9A42DD
:101C40001BD04AB10AE00268816A5268C2F30802F6
:101C50000A80816A891C08E0026972B102685268D0
:101C600002F07F020A70816A491C8162C18D491E9F
:101C70000904090CC18503D01BE002685268F1E732
:101C80000168CA6822F02002CA600168CA6822F4AA
:101C90008072CA6001684A6922F001024A6120210B
:101CA00080F8421000214163026B012A03D0FFF744
:101CB00083FC002008BD016301680C3151E8002F4E
:101CC00022F0100241E80023002BF5D101680A68D8
:101CD000D20602D50A6849680091818DFFF786FA1D
:101CE000E7E7000070B5044600680169E26821F486
:101CF0004051114301612169A068084361690843AB
:101D00002168CA6841F20C639A430243CA602068A2
:101D10004169A26921F44071114341611E49206863
:101D2000884202D1FEF7C4FE01E0FEF7B1FE00EBEF
:101D3000C00101EB0012606864218000B2FBF0F387
:101D4000B3FBF1F36FF018067343B2FBF0F5B2FB8F
:101D5000F0F605EB8305322303EB0515B5FBF1F532
:101D6000B6FBF1F605F0F00505EB0615B2FBF0F653
:101D7000B2FBF0F0B0FBF1F06FF01802504306EB4D
:101D8000800003EB0010B0FBF1F0216800F00F00C1
:101D90002844886070BD00000038014038B5816279
:101DA00004468285002013466064222284F8422083
:101DB000E56B1B4AAA62E56B1A4AEA62E56B1A4AAE
:101DC0002A63E26B50630A462168E06B091DFEF747
:101DD000EBFB2068016840680090206948B12068EA
:101DE0000C3050E8001F41F4807140E80012002AD6
:101DF000F5D12068143050E8001F41F0010140E89F
:101E00000012002AF5D12068143050E8001F41F07C
:101E1000400140E80012002AF5D1002038BD000042
:101E2000131B0008991B0008C91A00080148FFF796
:101E3000DFB900004C0B0020FEE70907090E00285F
:101E400004DB00F1E02080F80014704700F00F0080
:101E500000F1E02080F8141D704700002DE9F05FCC
:101E60001D46DDE910A9DDF83CB016460F46804658
:101E7000002400BF224858F8241002681164214948
:101E800057F824200B685A630B6856F824209A638D
:101E9000036855F82420DA630A9A0B6852F8242064
:101EA000DA630B9A096852F824200A640C990268D4
:101EB00051F8241051630D9951F8242012490B68F0
:101EC000DA630E9A0B6852F824201A6400685BF8F3
:101ED000242082630A685AF824005063096859F87C
:101EE000240088631E20FEF797FB641C0B2CC1DBCB
:101EF0003220FEF791FB054901200870BDE8F09FF4
:101F0000740A0020BC0A0020040B002002000020FC
:101F10002DE9F05F1D46DDE90CA9DDF82CB0164671
:101F20000F468046002400BF184858F82410026865
:101F30005163026857F824109163154956F824201C
:101F40000B68DA630B6855F824201A640A9A036850
:101F500052F82420DA6300685BF8242002640A68DF
:101F60005AF824005063096859F824008863142043
:101F7000FEF752FB641C0B2CD6DB3220FEF74CFB29
:101F8000044901200870BDE8F09F0000BC0A002051
:101F9000040B0020010000202DE9F05F8146594824
:101FA00016460F46DDE91CA4027857485749DFF86A
:101FB0006081DDF86CB01D46012A04D0554A1278C4
:101FC000012A4ED094E0002483468A46DBF80020A4
:101FD00059F8241058461164DAF8003057F82420D4
:101FE0005A63DAF8003056F824209A63DBF80030A0
:101FF00055F82420DA630A9ADAF8003052F82420DF
:10200000DA630B9ADAF8001052F824200A640C996B
:10201000026851F8241051630D99D8F8003051F836
:102020002420DA630E9AD8F8003052F824201A647B
:102030000F9ADBF8000052F8242082631098D8F839
:10204000002050F8240050631198D8F8001050F880
:10205000240088631E20FEF7DFFA641C0B2CB5DB1E
:1020600046E0002507460E4612983A6850F82510BB
:10207000384611641399336851F825205A63149A2D
:10208000336852F825209A63159A3B6852F8252048
:10209000DA63169A336852F82520DA63179A3168A2
:1020A00052F825200A641899026851F825105163E6
:1020B0001999D8F8002051F82510D1631A99D8F849
:1020C000002051F82510116438685BF825108163F1
:1020D000D8F800105AF825004863D8F8001054F8D2
:1020E000250088631E20FEF797FA6D1C0B2DBBDBC5
:1020F0000449002008700749087007490870BDE8C6
:10210000F09F0000620A0020740A0020BC0A002030
:10211000040B0020630A0020020000202DE9F05F7C
:1021200082464348DFF80C81DFF80C910078DDF837
:1021300028B0159C1D4616460F46012804D03F487E
:102140000078012834D069E05FF00004D8F800205E
:102150005AF824105163D8F8002057F824109163DE
:10216000D9F8003056F82420DA63D9F8003055F851
:1021700024201A64D8F800305BF82420DA630B9A24
:10218000D8F8000052F8242002640C98D9F80020F6
:1021900050F8240050630D98D9F8001050F824002E
:1021A00088631420FEF738FA641C0B2CCEDB35E074
:1021B00000250E98D8F8001050F8250048630F98B5
:1021C000D8F8001050F8250088631098D9F800104E
:1021D00050F82500C8631198D9F8001050F8250070
:1021E00008641298D8F8001050F82500C8631398B6
:1021F000D8F8001050F8250008641498D9F8001099
:1022000050F825004863D9F8001054F82500886379
:102210001420FEF701FA6D1C0B2DCADB07490020C4
:1022200008700349087006490870BDE8F09F000077
:10223000610A0020BC0A0020040B0020600A002074
:102240000100002010B594B0012847D0022865D0C5
:1022500003287CD004283FD100F056FA614913913D
:10226000A1F5047000F54673A1F12C021093CDE99D
:10227000110200F53B72A0F5C671CDE90E1200F512
:102280008464DC33CDE90C3400F5847200F1DC03A6
:10229000CDE90A20CDE90813B030A0F12C01CDE939
:1022A0000610A0F5B07300F5467200F53B71A0F57D
:1022B000F270CDE9042300F57D7200F57273CDE96B
:1022C0000032CDE9020100F1840300F53B7200F514
:1022D000307100BFFFF760FE14B010BD424B08AC78
:1022E000A3F12C0202F50F71A1F12C0084E80F007C
:1022F00000F5C670A0F12C01DC3200918433CDE9E9
:102300000610CDE904320392CDE90103A0F5B073C4
:10231000A0F5C6723449A0F5677022E000F0DCFA3F
:10232000324B08ACA3F12C0202F53B71A1F12C0059
:1023300084E80F00DC308431A0F50472A0F50F733F
:102340000091CDE90610CDE90432039200E00BE0E4
:10235000CDE90103A0F1B003A0F1DC022349A0F50F
:102360006770FFF7DBFEB7E721491391A1F5F27023
:1023700000F53B73A1F12C021093CDE9110200F599
:102380003072A0F5C671CDE90E1200F57D74DC3314
:10239000CDE90C3400F1DC0200F1B003CDE90A20F4
:1023A000CDE9081300F59A70A0F12C01CDE90610D3
:1023B000A0F5C67300F5467200F53B71A0F50470F8
:1023C000CDE9042300F5846200F57D73CDE9003288
:1023D000CDE9020100F1840300F5467200F53B717E
:1023E00078E70000A813002094000020C00B002014
:1023F000CC0700202DE9F05F1D46DDE910A9DDF8CE
:102400003CB016460F468046002400BF244858F8CA
:10241000241002681164234957F824200B685A637A
:102420000B6856F824209A63036855F82420DA6371
:102430000A9A0B6852F82420DA630B9A096852F85A
:1024400024200A640C99026851F8241051630D99F4
:1024500051F8242014490B68DA630E9A0B6852F87D
:1024600024201A6400685BF8242082630A685AF802
:1024700024005063096859F8240088631E20FEF781
:10248000CBF8641C0B2CC1DB3220FEF7C5F80749E2
:1024900002200870064901200870BDE8F09F000086
:1024A000740A0020BC0A0020040B0020620A0020ED
:1024B000630A00202DE9F05F1D46DDE90CA9DDF877
:1024C0002CB016460F468046002400BF194858F825
:1024D000241002685163026857F82410916316496A
:1024E00056F824200B68DA630B6855F824201A6428
:1024F0000A9A036852F82420DA6300685BF8242003
:1025000002640A685AF824005063096859F82400E4
:1025100088631420FEF780F8641C0B2CD6DB074977
:1025200002200870064901200870BDE8F05F3220E3
:10253000FEF772B8BC0A0020040B0020600A0020DD
:10254000610A002008B5FEF77DF9FFF799F9FFF75A
:1025500057F86248416941F0010141614069002238
:1025600000F00100009011460C20FEF7C9F90C2084
:10257000FEF7B8F9002211460D20FEF7C1F90D2033
:10258000FEF7B0F9FFF7D4F8FFF722F9FFF766F886
:10259000544853490C2201604FF4E131416000215D
:1025A0008160C160C0E904128161C161FEF756FF1C
:1025B00008B172B6FEE74B480021D838FEF7C8FDD7
:1025C00048480421D838FEF7C3FD46480821D838CA
:1025D000FEF7BEFD43480C21D838FEF7B9FD41484F
:1025E00000219038FEF7B4FD3E4804219038FEF7F4
:1025F000AFFD3C4808219038FEF7AAFD39480C2170
:102600009038FEF7A5FD374800214838FEF7A0FDB9
:10261000344804214838FEF79BFD324808214838E9
:10262000FEF796FD2F480C214838FEF791FD042255
:102630002D492C48FEF7B2FF2B4C2C4E4FF4805501
:102640000C3C29463046FEF7E9F8E278A0791346BB
:102650006179024327790A433A4313D01BB100F052
:1026600041FA01200CE018B100F04CFB032007E018
:1026700019B100F0E9FB042002E000F0C9F90220E2
:10268000E07102E0E079FFF7DDFD20780028D8D185
:1026900014494B20D8390A6850630A6890630A6865
:1026A000D063096808640F482C27903801684F638D
:1026B00002683F21916303686A22DA630068572346
:1026C000036408484838D0F800C0CCF83470076874
:1026D000B9630168CA6300680364B2E7001002408E
:1026E000004800404C0B00200C000020000C014072
:1026F0005FF00002C2F10A0350F8233041F82230A3
:10270000521C0B2AF6DB704700B567496748FFF794
:10271000EFFF654965482C312C30FFF7E9FF62492E
:10272000624858315830FFF7E3FF5F495F48843112
:102730008430FFF7DDFF5C495C48B031B030FFF713
:10274000D7FF59495948DC31DC30FFF7D1FF5849F0
:102750005848FFF7CDFF564956482C312C30FFF72B
:10276000C7FF5349534858315830FFF7C1FF50490C
:10277000504884318430FFF7BBFF4D494D48B0319C
:10278000B030FFF7B5FF4A494A48DC31DC30FFF78B
:10279000AFFF49494948FFF7ABFF474947482C314C
:1027A0002C30FFF7A5FF4449444858315830FFF713
:1027B0009FFF4149414884318430FFF799FF3E49EA
:1027C0003E48B031B030FFF793FF3B493B48DC3126
:1027D000DC30FFF78DFF3A493A48FFF789FF384967
:1027E00038482C312C30FFF783FF354935485831B4
:1027F0005830FFF77DFF3249324884318430FFF78B
:1028000077FF2F492F48B031B030FFF771FF2C49C7
:102810002C48DC31DC30FFF76BFF2B492B48FFF7EE
:1028200067FF294929482C312C30FFF761FF2649E1
:10283000264858315830FFF75BFF2349234884313D
:102840008430FFF755FF20492048B031B030FFF702
:102850004FFF1D491D48DC31DC30FFF749FF1C49A3
:102860001C48FFF745FF1A491A482C312C30FFF756
:102870003FFF1749174858315830FFF739FF1449BF
:10288000144884318430FFF733FF11491148B031C7
:10289000B030FFF72DFF0E490E48DC31DC305DF81B
:1028A00004EBFFF725BF0000B40F00203004002028
:1028B000BC10002038050020C41100204006002074
:1028C000CC12002048070020D4130020500800201C
:1028D000DC1400205809002000B545494548FFF7A1
:1028E00007FF434943482C312C30FFF701FF424991
:1028F0004248FFF7FDFE404940482C312C30FFF79D
:10290000F7FE3F493F48FFF7F3FE3D493D482C3174
:102910002C30FFF7EDFE36493648B031B030FFF7C6
:10292000E7FE33493348DC31DC30FFF7E1FE324962
:102930003248B039B038FFF7DBFE2F492F488439D1
:102940008438FFF7D5FE2C492C48B031B030FFF762
:10295000CFFE2B492B4884398438FFF7C9FE26491E
:10296000264858395838FFF7C3FE234923482C39E5
:102970002C38FFF7BDFE1E491E4858315830FFF76E
:10298000B7FE1B491B4884318430FFF7B1FE18495C
:10299000184858395838FFF7ABFE154915482C39F7
:1029A0002C38FFF7A5FE1449144858315830FFF76A
:1029B0009FFE1149114884318430FFF799FE104978
:1029C000104858395838FFF793FE0D490D482C39F7
:1029D0002C38FFF78DFE0C490C48FFF789FE0A4999
:1029E0000A482C312C305DF804EBFFF781BE000063
:1029F000EC0B002068000020FC0D00207802002075
:102A00005C0F0020D8030020F40C0020700100208F
:102A100010B58CB0FFF760FF2F4C607890B92F4B4A
:102A2000A3F12C0202F53B71A1F12C008DE80F00FF
:102A3000A0F59A73A0F5B072A0F55171A0F55C7085
:102A4000FFF766FA254B583BA3F12C0202F5C6713D
:102A5000A1F12C008DE80F0000F59A7300F5847247
:102A600058395838FFF726FD207998B11B4BB03301
:102A7000A3F12C0202F5C671A1F12C008DE80F0024
:102A8000A0F50F7158335832A0F51A7000F0F2F823
:102A90000CB010BD124B08ACA3F12C0202F53B7137
:102AA000A1F12C0084E80F00DC308431A0F5047221
:102AB0000091A0F50F73CDE90610CDE90432039221
:102AC000CDE90103A0F1B003A0F1DC020449A0F5B7
:102AD0006770FFF723FBDBE700000020C80C002035
:102AE000C00B002010B5314C8CB0607898B904F55B
:102AF000CE73A3F12C0202F50F71A1F12C008DE829
:102B00000F00A0F18403A0F1B002A0F55171A0F56F
:102B10005C70FFF7FDF9254BEC33A3F12C0202F5B5
:102B2000C671A1F12C008DE80F0000F59A7300F535
:102B3000847258395838FFF7BDFCE07890B11C4BCF
:102B4000A3F12C0202F5C671A1F12C008DE80F0053
:102B5000A0F50F7158335832A0F51A7000F08AF8BA
:102B60000CB010BD114B08AC9433A3F12C0202F54C
:102B70000F71A1F12C0084E80F0000F5C670A0F1E0
:102B80002C01DC3200918433CDE90610CDE904320A
:102B90000392CDE90103A0F5B073A0F5C672A0F5CC
:102BA0005C71A0F56770FFF7B9FAD9E70000002063
:102BB000F40100202DE9F05F1D46DDE910A9DDF8E4
:102BC0003CB016460F468046002400BF244858F803
:102BD000241002681164234957F824200B685A63B3
:102BE0000B6856F824209A63036855F82420DA63AA
:102BF0000A9A0B6852F82420DA630B9A096852F893
:102C000024200A640C99026851F8241051630D992C
:102C100051F8242014490B68DA630E9A0B6852F8B5
:102C200024201A6400685BF8242082630A685AF83A
:102C300024005063096859F8240088631E20FDF7BA
:102C4000EBFC641C0B2CC1DB3220FDF7E5FC0749D3
:102C500001200870064902200870BDE8F09F0000BE
:102C6000740A0020BC0A0020040B0020620A002025
:102C7000630A00202DE9F05F1D46DDE90CA9DDF8AF
:102C80002CB016460F468046002400BF194858F85D
:102C9000241002685163026857F8241091631649A2
:102CA00056F824200B68DA630B6855F824201A6460
:102CB0000A9A036852F82420DA6300685BF824203B
:102CC00002640A685AF824005063096859F824001D
:102CD00088631420FDF7A0FC641C0B2CD6DB07498D
:102CE00001200870064902200870BDE8F05F32201C
:102CF000FDF792BCBC0A0020040B0020600A0020F3
:102D0000610A00202DE9F04F4C4C95B004F62C15CB
:102D1000A07804F6342A04F6082BC8B904F6240077
:102D2000A0F12C01A0F50472CDE90610DC30CDE94C
:102D30000452A0F58F63CDE902301346CDE900BA05
:102D4000A0F5F272A0F50471A0F58F60FFF786F888
:102D50003B49A1F12C02CDE9062101F53B79A1F512
:102D60009A7301F54678A1F5DC7101F56777009754
:102D7000CDE9048301F57276CDF80C90CDE90161BF
:102D800001F5307201F52571A1F52570FFF732FBD1
:102D9000A079D8B1A6F58470A0F12C01A0F5DC7261
:102DA00004960790CDE90521A0F55172CDE90227DF
:102DB000CDE90098A0F5DC73A0F59A71204AA0F542
:102DC0005170FFF7F7FE15B0BDE8F08F1D49139164
:102DD000A1F5F27000F53B73A1F12C021093CDE93F
:102DE000110200F53072A0F5C671CDE90E1200F5A2
:102DF0007D74DC33CDE90C3400F1B003CDE9081368
:102E000000F1DC02CDE90A2000F59A712C32CDE9FF
:102E1000062100F546710091A0F15803CDE904A305
:102E2000A0F1DC02CDF80CB0CDE9015200F50F7233
:102E300000F50471DC38FFF7AFF8C4E700000020AC
:102E40006C060020CC0700202DE9F04F95B0FFF76D
:102E50005BFC4E484E4C4079A4F12C0B04F5847A6F
:102E600004F1DC05C8B9A4F58470A0F12C01A0F52B
:102E7000F2720790CDE90521A0F55C720095CDE9CD
:102E800001A2CDE903B4A0F5F273A0F58472A0F518
:102E90009A71A0F55C70FEF7E1FF3E48079000F5DF
:102EA0004676A0F12C01A0F59A720496CDE9052191
:102EB00000F53B77843A00F5047800F5F279CDE926
:102EC0000227CDE90098A0F59A7300F5847200F10D
:102ED000DC01A0F5DC70FFF78DFA4FF480512E482D
:102EE000FDF79CFCD0B1A6F50471A1F12C02A1F56F
:102EF000DC73CDE906210097CDE90483A1F551717A
:102F0000CDF80C90CDE9016101F50471DC3AA1F531
:102F10000470FFF74FFE15B0BDE8F08F1C49B039C3
:102F2000A1F5047000F54673A1F12C0210931391E2
:102F3000CDE9110200F53B72A0F5C671CDE90E1284
:102F400000F58466DC33CDE90C3600F1DC0300F5D6
:102F50008472CDE90813CDE90A2000F1B001843A6A
:102F6000CDE90621A0F1B003CDF800B0CDE904A36E
:102F7000A0F59A710395CDE9014100F5DC7200F5E9
:102F8000C671A0F59A70FFF707F8C4E700000020AB
:102F900058140020F0110020000C0140010202032F
:102FA0000405060708090A0B0C0D0E0F101000008F
:102FB00000000000000001020304060708090000E9
:102FC0000000010203040000E82F000800000020B8
:102FD000740A00002801000804330008740A002065
:102FE0005C120000840100080110322C322D322EB8
:102FF000322F323132323234323632373239323B9A
:10300000323F323EDA3D042914291C32403241322B
:10301000439A2104322232233224322532273228A5
:103020005A2A80293029382940091E64A954295078
:1030300032265A29485A30B829B429B02958295477
:10304000294029105A3ACC29082910291829202961
:10305000282910291C5A38F8323532335A3258325E
:103060002F9A2DB05A420429B869BC690429A8696D
:103070000429305A2BA429F429FC29B45A25C05A12
:1030800023CC29D4A938A9506964697469B029ACE2
:1030900029A829A429A0296C296829642960295C08
:1030A000295869B069A8E968695C29285A75043209
:1030B0007432723270326D326A32663262325F322C
:1030C0005B325332565A5910325C5A5D0829102926
:1030D00018292029286958695C5A73603271326F47
:1030E000326E5A6C6829305A553C32575A584CA99E
:1030F000042914291C293032693268326732655A32
:1031000064A85A60AC29942990091E4C297029782A
:1031100029802930325E5A6150295C296C5A6DB081
:1031200029B829C429D02930DA54B469046954294A
:1031300020292829445A6B4829F4294C5A70505A9E
:1031400072545A7458E948690429506954695829D5
:10315000B029E829B429F829B85A63BC5A66C05A7C
:10316000698069B069B469B86904A978324732489E
:103170005A4904324A324B324C5A4D04324E5A4F5D
:103180002C69046930A904693CA9042948A94CA9FF
:103190005469582904290C691C2930293C29506993
:1031A0005C29A429786958A91CA90469282904E97B
:1031B00058A90469986950E9C869CC6928A9C8E97F
:1031C000DC09122469040912A4A9646968290409A4
:1031D00016A0A92C69F8E92809120469586904E9BC
:1031E00048E9542904322C5A2B04DA2A04291429D8
:1031F00020322D322E323F323E5A3C04323A5A3B74
:103200000C5A3D2032409A43509A29049A280CA91E
:1032100060293C69505A39045A3808696469602940
:103220008CE9B4690CE9B09A41B4696469AC69503D
:10323000292429B0293069042940E904295869045E
:103240002930DA4204294829FCA9042960A938A9AF
:1032500004A9B46904293009120429C0690469BCAD
:10326000A9B0091AB8290429B00912B4E9C029047F
:10327000326A326B326C326DDA6E042914291C29E1
:103280000432573259325B325D325E5A5F04290C88
:103290002914325C0A1D5A54E95C091254DA605C44
:1032A0006958DA69B46904694C2918290429249AEF
:1032B00055B4293C296429482904290C2914291CBE
:1032C0002924A93C09160429542904293869042908
:1032D0004069045A58042950690469A0091E5C29F0
:1032E00004A9580916646904698C091A045A690406
:1032F000698C0A1956045A5504413201821013127E
:043300007A0000004F
:04000005080000ED02
:00000001FF
