:020000040800F2
:1000000028080020890100088B190008A31800089F
:1000100089190008F30200081123000800000000FD
:100020000000000000000000000000001520000893
:100030003703000800000000C91E00081720000850
:10004000A3010008A3010008A3010008A301000800
:10005000A3010008A3010008A3010008A3010008F0
:10006000A3010008A3010008A3010008A3010008E0
:10007000A3010008A3010008F5020008010300081D
:10008000A3010008A3010008A3010008A3010008C0
:10009000A3010008A3010008A3010008A3010008B0
:1000A000A3010008A3010008A3010008A3010008A0
:1000B000A3010008A3010008A3010008A301000890
:1000C000A3010008A3010008A3010008A301000880
:1000D000A301000805230008A3010008A3010008EC
:1000E000A3010008A3010008A301000800F002F822
:1000F00000F03AF80AA090E8000C82448344AAF188
:100100000107DA4501D100F02FF8AFF2090EBAE885
:100110000F0013F0010F18BFFB1A43F0010318473B
:100120002024000040240000103A24BF78C878C181
:10013000FAD8520724BF30C830C144BF04680C60ED
:10014000704700000023002400250026103A28BF35
:1001500078C1FBD8520728BF30C148BF0B60704739
:100160001FB51FBD10B510BD00F08AF81146FFF78E
:10017000F7FF02F0DFF800F0A8F803B4FFF7F2FF92
:1001800003BC00F0AFF80000094880470948004769
:10019000FEE7FEE7FEE7FEE7FEE7FEE7FEE7FEE737
:1001A000FEE7FEE704480549054A064B7047000094
:1001B00079200008ED00000828020020280800200F
:1001C000280400202804002010B5203AC0F00B803D
:1001D000B1E81850203AA0E81850B1E81850A0E84B
:1001E0001850BFF4F5AF5FEA027C24BFB1E81850A5
:1001F000A0E8185044BF18C918C0BDE810405FEA15
:10020000827C24BF51F8043B40F8043B08BF704790
:10021000D20728BF31F8023B48BF11F8012B28BF95
:1002200020F8023B48BF00F8012B70474FF0000256
:1002300000B5134694469646203922BFA0E80C50DC
:10024000A0E80C50B1F12001BFF4F7AF090728BFB7
:10025000A0E80C5048BF0CC05DF804EB890028BF33
:1002600040F8042B08BF704748BF20F8022B11F05C
:10027000804F18BF00F8012B7047704770477047D8
:10028000754600F02BF8AE4605006946534620F04F
:100290000700854618B020B5FFF784FFBDE8204071
:1002A0004FF000064FF000074FF000084FF0000B32
:1002B00021F00701AC46ACE8C009ACE8C009ACE8E5
:1002C000C009ACE8C0098D46704710B50446AFF3CD
:1002D00000802046BDE81040FFF74FBF0048704740
:1002E000C801002001491820ABBEFEE7260002002D
:1002F0007047FEE7014800F091B80000840100203B
:10030000014800F08BB800004001002030B590F8A3
:1003100040500124AC40C56B6C6004686360436866
:10032000102B036803D099600068C26030BD9A60EA
:100330000068C16030BD704772B6FEE710B590F836
:1003400021100022022905D00421816380F8202099
:10035000012010BD01680B6823F00E030B600168DB
:100360000B6823F001030B6090F84030C46B01214F
:1003700001FA03F3636080F8211080F82020104612
:1003800010BD000010B590F821100024022903D000
:100390000421816301243DE001680A6822F00E0215
:1003A0000A6001680A6822F001020A601A4A0168BC
:1003B000914201D1012121E0174A1432914201D129
:1003C00010211BE0144A2832914201D1891515E011
:1003D000114A3C32914201D189140FE00E4A503249
:1003E000914202D14FF4803108E00B4A64329142CD
:1003F00002D14FF4801101E04FF08071064A083AB3
:100400005160012180F82110002180F82010416BFB
:1004100001B18847204610BD080002402DE9F05F79
:10042000C16B0C6801680B68D0F840C0042202FA66
:100430000CF2494DDFF824A1494E4A4FDFF828B1AC
:10044000DFF828E122422CD05A072AD50A68920602
:1004500003D40A6822F004020A600168A94201D1AB
:10046000042219E0514501D1402215E0B14202D1E8
:100470004FF4806210E0B94202D14FF480420BE0A9
:10048000594502D14FF4802206E0714502D14FF464
:10049000800201E04FF080622F4908394A60C16A4A
:1004A0003BE04FF0020808FA0CF818EA040F4FF08E
:1004B00000094FF0010235D05FEA837832D50B682E
:1004C0009B0605D40B6823F00A030B6080F82120FB
:1004D0000168A94201D1022219E0514501D120222F
:1004E00015E0B14202D14FF4007210E0B94202D1DE
:1004F0004FF400520BE0594502D14FF4003206E0B0
:10050000714502D14FF4001201E04FF00072124920
:1005100008394A6080F82090816A00291AD0BDE825
:10052000F05F0847082505FA0CF5254212D01B0795
:1005300010D50B6823F00E030B6090F84010C36BCE
:1005400002FA01F15960826380F8212080F820903E
:10055000016BE2E7BDE8F09F080002401C0002408A
:100560003000024044000240580002406C0002404B
:1005700030B528B308C8134914221944B1FBF2F16D
:100580008900C16310498163022141771A6843F6EB
:10059000F0718A43D0E900142143D0E902452C438D
:1005A0002143046921434469214384692143114360
:1005B000196000214163012242770177084630BD6E
:1005C000012030BDF8FFFDBF0000024070B50446B9
:1005D00090F82000002501280CD0012084F820008C
:1005E00094F821600020012E06D084F82000022516
:1005F000284670BD022070BD022684F82160A063E9
:100600002068066826F0010606602046FFF77EFE99
:10061000E06A00282068016802D041F00E0106E07F
:1006200021F0040101602068016841F00A010160C5
:100630002068016841F001010160D9E770B5044606
:1006400000F004F90546601C02D004480078044418
:1006500000F0FCF8401BA042FAD370BD3800002027
:100660002DE9F84FDFF8B8910024A9F1040B2346D7
:100670000F2709F1040AABF1040EC9E00125A540DA
:100680002A40AA427DD1674ED1F804C0ACEB0608DF
:10069000B44532D014DCBCF1030F3AD009DCBCF114
:1006A000000F2AD0BCF1010F1CD0BCF1020F31D1D8
:1006B0001DE0BCF1110F17D0BCF1120F2AD119E0C7
:1006C000B8F5881F19D006DCB8F5803F15D0B8F50D
:1006D000801F1FD111E0B8F5001F0ED0B8F5041F20
:1006E00018D10AE0CB6815E0CB681B1D12E0CB687F
:1006F00008330FE0CB680C330CE08B682BB1012B77
:100700004FF0080303D0456104E0042302E00561D3
:1007100000E00023FF2A01D8064601E000F10406AC
:100720004FEA840501D9A5F12005D6F8008007FA23
:1007300005FC28EA0C0803FA05F548EA0508C6F89E
:1007400000804D68ED0062D5374DAE6946F0010678
:10075000AE61AD6924F0030605F001050095334D47
:1007600006EB050CDCF80850A607360F07FA06F86A
:1007700025EA0805DFF8B880404503D14FF00008AE
:1007800017E044E0DFF8AC80404502D14FF00108AB
:100790000FE0DFF8A480404502D14FF0020808E0E6
:1007A000DFF89880404502D14FF0030801E04FF098
:1007B000040808FA06F848EA0508CCF808804D68ED
:1007C000D9F80060ED024D4601D5164300E096438E
:1007D0002E604D68DAF80060AD02554601D516432B
:1007E00000E096432E604D68DBF80060AD035D4687
:1007F00001D5164300E096432E604D68DEF8006098
:10080000ED03754601D5164300E096432E60641C47
:100810000D682A46E5407FF431AFBDE8F88F00004F
:1008200008040140000011100010024000000140C7
:1008300000080140000C014000100140001401407C
:100840000AB1016170470904FBE7000001488068B4
:100850007047000038000020024881680278114487
:100860008160704738000020074810B5016841F0EA
:1008700010010160032000F075F80F2000F006F869
:1008800000F024F8002010BD0020024070B50D4D8E
:1008900004464FF47A712878B1FBF0F00A490968F0
:1008A000B1FBF0F000F0C3FD48B9102C07D20022D4
:1008B0002146501E00F036F800206C6070BD01200B
:1008C00070BD000038000020440000200C4808B52E
:1008D000816941F001018161816901F001010091AB
:1008E000C16941F08051C161C06900F08050009041
:1008F0000448416821F0E06141F00071416008BDA9
:100900000010024000000140002809DB00F01F0237
:10091000012191404009800000F1E020C0F8001161
:1009200070470000F0B40E4B1B680C46C3F3022363
:10093000C3F10705042D00D90425191D072901D28B
:10094000002300E0DB1E012606FA05F1491E2140C6
:1009500099409E40761E16403143F0BC01F0D9BC50
:100960000CED00E0064900F0070208684FF6FF03AF
:10097000184040EA0220034A104308607047000014
:100980000CED00E00000FA052DE9F0470F460500E8
:1009900061D0434E306800F00700B84209D2306899
:1009A00020F0070038433060306800F00700B8429C
:1009B00051D128683B4C810712D5400703D56068A8
:1009C00040F4E06060602878000703D5606840F478
:1009D000605060606068A96820F0F00008436060C3
:1009E0002878C00728D06868012810D0216802281C
:1009F00010D0890700292EDA616821F00301014334
:100A00006160FFF723FF804641F288390DE02168DD
:100A10008903EFE78901EDE7FFF718FFA0EB080175
:100A2000494502D90320BDE8F0876068696800F095
:100A30000C00B0EB810FEFD1306800F00700B84236
:100A40000BD9306820F0070038433060306800F080
:100A50000700B84201D00120E5E72878400705D516
:100A60006068E96820F4E060084360602878000767
:100A700006D56068296920F4605040EAC1006060D2
:100A800000F038F86168084AC1F30311515CC840AE
:100A90000649086006480068FFF7F8FE0020C2E734
:100AA00000200240001002402725000844000020DA
:100AB0003C0000200448054900684968044AC1F325
:100AC0000221515CC84070474400002000100240E1
:100AD000372500080448054900684968044AC1F3FD
:100AE000C221515CC8407047440000200010024001
:100AF000372500080E4A51680E4801F00C03042BFC
:100B000011D0082B0FD10C48C1F38343C903C05C3B
:100B10000AD55168084AC1F34041921E515C054A0A
:100B20005043B0FBF1F07047044948437047000060
:100B30000010024000127A001725000800093D004D
:100B40002DE9F84F040070D02078C04DC00749D07F
:100B50006868C0F38100012807D06868C0F381008D
:100B6000022809D16868C00306D52868800339D5F2
:100B700060680028E7D035E06068B0F5803F0BD0B2
:100B800010B1B0F5A02F11D0286820F48030286073
:100B9000286820F4802002E0286840F48030286033
:100BA000606890B1FFF752FE06460AE0286840F4FC
:100BB00080202860F0E700BFFFF748FE801B642814
:100BC00073D828688003F7D50CE0FFF73FFE064690
:100BD00005E000BFFFF73AFE801B6428F0D82868C4
:100BE0008003F7D420789A4E80074FF001094FF028
:100BF000000839D5686810F00C0F07D06868C0F39A
:100C00008100022809D16868C00306D428688007DB
:100C100014D52069012808D110E02069B0B1C6F8C8
:100C20000090FFF713FE074605E00AE1FFF70EFE0E
:100C3000C01B0228C4D828688007F7D528686169D6
:100C400020F0F80040EAC10028600DE0C6F80080FE
:100C5000FFF7FCFD074604E0FFF7F8FDC01B022884
:100C600023D828688007F7D4207800072CD5794846
:100C7000A169D9B1C0F80090FFF7E8FD074604E08C
:100C8000FFF7E4FDC01B02280FD8686A8007F7D57C
:100C900071484FF4FA510068B0FBF1F0009000BFCA
:100CA0000098411E0091FAD20EE080E0C0F800806A
:100CB000FFF7CCFD074604E0FFF7C8FDC01B022884
:100CC00075D8686A8007F7D42078400760D5E8694E
:100CD0000027C00008D4E86940F08050E861E86966
:100CE000012700F0805000905C480168C90513D4CA
:100CF0000168834641F480710160FFF7A7FD8246D9
:100D000006E000BFFFF7A2FDA0EB0A0064284ED862
:100D1000DBF80000C005F5D5E06801280AD008B16D
:100D2000052813D0286A20F001002862286A20F0E4
:100D3000040002E0286A40F001002862E06841F205
:100D4000883B98B1FFF782FD82460BE0286A40F0AD
:100D500004002862EEE700BFFFF778FDA0EB0A0170
:100D600059455AD8286A8007F6D50CE0FFF76EFD82
:100D7000824605E0FFF76AFDA0EB0A0159454CD811
:100D8000286A8007F6D41FB1E86920F08050E86136
:100D9000E06988B36968C1F38101022944D002285F
:100DA000C6F8608004D0FFF751FD044638E034E017
:100DB000FFF74CFD074604E0FFF748FDC01B022883
:100DC0002BD828688001F7D4206AB0F5803F05D180
:100DD0006868A16820F4003008436860D4E908011D
:100DE0000843696821F4741108436860C6F860908C
:100DF000FFF72CFD044606E025E000BFFFF726FDC7
:100E0000001B022809D828688001F7D51BE000BF25
:100E1000FFF71CFD001B022802D90320BDE8F88F54
:100E200028688001F4D40EE00128F7D06868226AAF
:100E300000F48031914204D1616A00F4701088425C
:100E400001D00120EAE70020E8E70000001002409E
:100E500000004242800442424400002000700040F2
:100E600070B5040009D0606A002540B12561656154
:100E7000A56294F8510040B10CE0012070BD60689B
:100E8000B0F5827FF4D0E561F2E784F85050204657
:100E900000F040F8022084F851002068016821F039
:100EA00040010160A088218900F4827001F40441AE
:100EB0000843A18901F400610843217C01F002018B
:100EC0000843217D01F001010843218B01F40071E9
:100ED0000843217F01F03801084394F8201001F005
:100EE00080010843218D01F4005108432168086006
:100EF000A069042101EA1040216848602068C169A6
:100F000021F40061C1616565012084F85100002071
:100F100070BD000030B585B00024009401940294A7
:100F2000039400681449884223D11448816941F42C
:100F300080518161816901F480510491816941F09E
:100F40000401816180690E4D00F004000490A0202E
:100F50000090022001900320039069462846FFF785
:100F60007FFB4020CDE90004694628460294FFF744
:100F700077FB05B030BD000000300140001002409A
:100F8000000801402DE9F84F044690F851001D4635
:100F900016460F46012838D160684FF00408B0F5B6
:100FA000827F01D1A06830B3FFF750FC8246002F4A
:100FB00075D0002E73D094F85000012825D04FF042
:100FC000010984F8509084F851804FF00008C4F86B
:100FD0005480A763A687E687C4F83080A4F83480DD
:100FE000A4F83680C4F84080C4F84480A068B0F506
:100FF000004F0CD015E084F85180009313460A4648
:10100000204600F01CF9BDE8F88F0220FBE72068BD
:10101000016821F0400101602068016821F48041ED
:10102000016020680168490603D4016841F040016D
:101030000160E068C0B134E020688168C90709D068
:10104000007BA16B0870A06B401CA063E08F401E6A
:10105000E08709E0FFF7FAFBA0EB0A00A84202D301
:10106000681C01D032E085B3E08F0028E4D11BE09A
:1010700020688168C90709D0C068A16B0880A06B8F
:10108000801CA063E08F401EE0870AE0FFF7DEFBD4
:10109000A0EB0A00A84203D3681C02D016E012E0BD
:1010A0009DB1E08F0028E3D152462946204600F04A
:1010B0000CFF08B12020606584F8519084F85080BE
:1010C000606D00289FD001209DE7FFE784F85190D4
:1010D00084F85080032096E72DE9F84F984616468D
:1010E0008A460446FFF7B2FB814694F85100012876
:1010F0001ED1BAF1000F73D0002E71D094F85000B9
:10110000012815D0012784F85070032084F851007D
:1011100000256565C4F830A0A686E686A563A58788
:10112000E58765642564A068B0F5004F03D00CE046
:101130000220BDE8F88F2068016821F040010160BD
:101140002068016841F48041016020680168490617
:1011500003D4016841F040010160E068B0F5006F20
:10116000606803D048B3012E27D047E008B1012EB4
:101170001FD1206B21680088C86006E02068816864
:10118000890709D5216B0988C160206B801C206309
:10119000E08E401EE0860CE0FFF758FBA0EB090153
:1011A000414503D3B8F1FF3F03D035E0B8F1000F5C
:1011B00032D0E08E0028E1D123E0206B2168007856
:1011C000087306E02068816889070AD5216B0978D1
:1011D0000173206B401C2063E08E401EE0860DE012
:1011E0002BE0FFF733FBA0EB0901414503D3B8F136
:1011F000FF3F03D010E0B8F1000F0DD0E08E0028C3
:10120000E0D14A464146204600F08DFE08B120203C
:101210006065A06830B109E084F8517084F85050DE
:10122000032086E72068C1688068009084F85170C8
:1012300004F8505F60680028F3D0012079E72DE9B9
:10124000FF4F81B01D46934604464FF001090E9EA4
:10125000FFF7FCFA074694F851006168012806D0B0
:10126000B1F5827F3CD1A168C9BB042838D102986E
:10127000002871D0BBF1000FFBD0002DF9D094F8FD
:10128000500001282CD04FF0010A84F850A094F8A7
:101290005100042802D0052084F851004FF00008C6
:1012A000C4F85480C4F838B0E587A5870299216353
:1012B000E586A586C4F84080C4F8448020680168AB
:1012C000490603D4016841F040010160E068B0F5CF
:1012D000006F606808D0F0B3012D49D081E0FFE7CE
:1012E000022005B0BDE8F08F08B1012D39D1206B87
:1012F00021680088C860206B801C2063E08E401E3F
:10130000E0862EE02068816889070FD5E18E69B1FB
:10131000B9F1010F0AD1216B0988C160206B801CD3
:101320002063E08E401EE0864FF00009206881684F
:10133000C9070CD0E18F51B1C068A16B0880A06BC8
:10134000801CA063E08F401EE0874FF00109FFF78B
:101350007DFAC01B01E00BE067E0B04201D3701CD6
:1013600050D1E08E0028CDD1E08F0028CAD13EE0D8
:10137000206B216800780873206B401C2063E08E8E
:10138000401EE0862DE02068816889070FD5E18E38
:1013900069B1B9F1010F0AD1216B09780173206B92
:1013A000401C2063E08E401EE0864FF0000920685C
:1013B0008168C9070CD0E18F51B1C068A16B08707A
:1013C000A06B401CA063E08F401EE0874FF0010936
:1013D000FFF73CFAC01BB04202D3701C01D011E0F1
:1013E00086B1E08E0028CED1E08F0028CBD13A46DE
:1013F0003146204600F097FD50B12020606584F80A
:10140000508012E084F851A084F85080032068E7EF
:10141000A06818B92068C1688068009084F851A05D
:1014200084F85080606D0028F1D0012059E710B594
:10143000401EB0F1807F01D3012010BD4FF0E024A9
:1014400060610F21601700F064FF0020A061072099
:101450002061002010BD704770470000F8B501689A
:1014600004460868CA684B6910F00F0F4FF000057A
:1014700059D003F0010602F49077374365D0C107D5
:1014800005D0D10503D5616C41F0010161644107CC
:1014900005D5D90703D0616C41F002016164810771
:1014A00005D5D90703D0616C41F0040161640107DF
:1014B00007D502F02001314303D0616C41F00801EF
:1014C0006164616C00293AD0800604D5900602D58B
:1014D000204600F05AFE20684069616CC0F380101D
:1014E000090700D460B3204600F01AFE2068406966
:1014F000400621D52068143050E8001F21F040013B
:1015000040E80012002AF5D1E06BA8B16D494163B3
:10151000E06BFEF737FF002811D0E06B416B01B0A4
:10152000BDE8F040084783060FD593060DD5204649
:10153000BDE8F84000F029BE2046FFF78DFFF8BD5A
:101540002046FFF789FF6564F8BD266B2023012E36
:101550007CD1C6067AD5D60678D50868486800904A
:1015600048694FF00206400640D5E16B08684068C4
:101570000004000CE8D0A28D8242E5D9E08588699C
:1015800020282DD020680C3050E8001F21F48071F5
:1015900040E80012002AF5D12068143050E8001FFE
:1015A00021F0010140E80012002AF5D12068143032
:1015B00050E8001F21F0400140E80012002AF5D158
:1015C00084F84230256320680C3050E8001F21F079
:1015D000100140E80012002AF5D1E06BFEF7AEFEE4
:1015E0006663A08DE18D401A81B22AE0A08DE18D65
:1015F000401A81B2E08D0028A6D00029A4D022682C
:101600000C3252E8000F20F4907042E80007002FDF
:10161000F5D12068143050E8002F22F0010240E894
:101620000027002FF5D184F84230256320680C3064
:1016300050E8002F22F0100240E80023002BF5D1E3
:1016400066632046FFF707FFF8BDFFE705062BD5C9
:10165000150629D594F841002128F5D1A068B0F5E8
:10166000805F01D12069B0B1206A411C21622168EC
:1016700000784860E08C401E0004000CE084E3D158
:101680002068C16821F08001C1602068C16841F014
:101690004001C160D8E7206A0088C0F308004860B4
:1016A000206A801C2062E5E74006CDD55006CBD5E8
:1016B000CA68204622F04002CA6084F8413000F037
:1016C000E1F8C1E77B20000870B5040004D094F86D
:1016D0004100002510B106E0012070BD84F84050A3
:1016E000204600F023F8242084F841002068C168D7
:1016F00021F40051C160204600F0A8FD2068016976
:1017000021F4904101612068416921F02A01416181
:101710002068C16841F40051C1606564202084F8EC
:10172000410084F842006563002070BDF0B585B0CB
:1017300000240646009401940294039400682C4906
:10174000884252D12B48816941F48041816181698D
:1017500001F480410491816941F004018161806953
:10176000254D00F0040004904FF40070009002201A
:1017700001900320039069462846FEF771FF281563
:10178000CDE90004694628460294FEF769FF1C4D26
:101790001A488027C5E90004C5E902472C616C613D
:1017A000AC612846EC61FEF7E3FE08B1FEF7C4FD2C
:1017B000F5636E621148134D143801C5102091C5B0
:1017C000104845F810496C61AC61EC61FEF7D0FE41
:1017D00008B1FEF7B1FDB5630022114625206E6207
:1017E000FFF7A0F82520FFF78FF805B0F0BD000047
:1017F000003801400010024000080140580002403B
:1018000040010020840100207047000070B50446AC
:1018100090F84100202801D0022070BD49B342B3A6
:101820002162A284E28400206064212384F8413094
:10183000A56B114BAB62A56B104BEB62A56B104B0C
:101840002B63A36B5863256813462A1DA06BFEF714
:10185000BDFE21686FF0400008602068143050E839
:10186000001F41F0800140E80012002AF5D100205D
:1018700070BD012070BD0000D520000817210008B0
:101880008B20000800680449884203D1034841685E
:10189000491C4160704700000038014018000020DA
:1018A0007047FEE7F0B585B0002523480095019507
:1018B00002950395816941F020018161816901F000
:1018C00020010491816941F004018161816901F085
:1018D00004010491816941F0080181618069174E1A
:1018E00000F008000490002249F618013046FEF787
:1018F000A7FF134F002208213846FEF7A1FF18204A
:1019000001248DE831000225694630460395FEF733
:10191000A7FE4FF418408DE8310069463046039524
:10192000FEF79EFE08208DE8310069463846039593
:10193000FEF796FE05B0F0BD001002400008014021
:10194000000C01400F4810B50D4901604FF4827141
:10195000416000218160C1604FF400720161C0E903
:1019600005122022C0E90721416281620A21C16279
:10197000FFF776FA002801D072B6FEE710BD00002E
:1019800000300140A0000020FEE7FEE708B500207F
:1019900000F00AF950208DF8000073208DF8010046
:1019A0006423022269460348FFF796FB012000F0FA
:1019B000FBF808BD480000200449054A0968B1FB4E
:1019C000F2F14143491EFDD270470000440000205F
:1019D000C0C62D000020AFF3008070B5054600F0B2
:1019E00009F90446C0F380166EB115B1C4F3420084
:1019F00028704021072000F031FAA00603D52021ED
:101A0000072000F02BFA304670BD00000FB47CB503
:101A100014460D460646582209A95C48FEF7D4FB39
:101A20005B4B0120DE60DD801C8100F0BDF80020F2
:101A300000F0B0F80520FEF701FE0821002000F0BC
:101A40000DFA3F21012000F009FA0321022000F0E5
:101A500005FA0321084600F001FA0321042000F0F2
:101A6000FDF90221052000F0F9F90F21062000F010
:101A7000F5F90E21072000F0F1F90021082000F00F
:101A8000EDF90021092000F0E9F9E7248DF8034081
:101A90008DF802408DF801408DF804408DF800402B
:101AA000052269460A2000F0F1F9C2208DF80300F2
:101AB0008DF802008DF801008DF804008DF800000B
:101AC000052269460B2000F0E1F9C3210C2000F04B
:101AD000C5F9C4210D2000F0C1F9C5210E2000F088
:101AE000BDF9C6210F2000F0B9F98DF803408DF83B
:101AF00002408DF801408DF804408DF80040052229
:101B00006946102000F0C2F90021112000F0A6F96A
:101B10000021122000F0A2F90021132000F09EF90C
:101B20000021142000F09AF90021152000F096F908
:101B30000021162000F092F9FFF728FF00211C2059
:101B400000F08CF900211D2000F088F90F210846D3
:101B500000F05AF9032000F031F9002000F000F9FC
:101B6000022000F0E2F800F029F8202000F044F90B
:101B700000F0D0F84C2000F0ECF800F037F800F05E
:101B800031F800F067F87CBC5DF814FB48000020D9
:101B900000000020020003480189C06800D0012233
:101BA000FEF74EBE0000002002000348C188C06856
:101BB00000D00122FEF744BE0000002010B51D2019
:101BC00000F088F820F004011D2000F047F9002102
:101BD0001C2000F043F902490020C87010BD00002D
:101BE00000000020FF21E22000F038B9FF21E120B1
:101BF00000F034B9072000F06DB800007FB5040094
:101C00001248134D06D0062C1ED8022C07D2005DB8
:101C1000052206E0DDE90212C5E90412F7E7005DDE
:101C2000012202A900F032F90848A978801F005D5E
:101C300000F014F9022000F04DF80121A140084302
:101C4000C1B2022000F00AF97FBD00000E25000895
:101C50000000002010B5002000F03CF820F0020148
:101C6000BDE81040002000F0F9B810B500F010F801
:101C7000172000F02FF800F00104FFF7B3FF6020F9
:101C800000F028F80CB1012010BD002010BD0000AC
:101C900038B505460D4884788C4200D90C460020A2
:101CA000FFF782FF61208DF800006423012269465E
:101CB0000748FFF711FA6423224629460448FFF734
:101CC00061F90120FFF770FF38BD0000000000201F
:101CD0004800002038B504460020FFF765FF04F0F7
:101CE0001F008DF800006423012269460848FFF7B1
:101CF000F3F96423012206480DF10101FFF742F9CF
:101D00009DF801400120FFF74FFF204638BD00003D
:101D1000480000207021072000F0A0B808B13F2142
:101D200000E00021012000F099B810B50446002021
:101D3000FFF7D0FF20F00C011CB1012C06D041F0C0
:101D40000C01BDE81040002000F088B841F0080107
:101D5000F7E77F2800D37F200146052000F07EB8FA
:101D60002DE9F04107464FF000080620FFF7B2FFCB
:101D7000114D002620F028046E71022F0ED0012F85
:101D800010D06E712146062000F068F80620FFF79B
:101D9000A1FFA0420BD14FF0010809E06E7144F0A1
:101DA0002004EFE70120687144F00804EAE76E714F
:101DB0004046BDE8F08100000000002010B5044658
:101DC0000620FFF787FF20F00601032C0DD0022C20
:101DD00005D0012C06D054B1042C06D007E041F008
:101DE000040104E041F0020101E041F00601BDE818
:101DF0001040062000F032B8202800D320200149EE
:101E0000887070470000002000F00F0060F31F1181
:101E1000042000F023B8000010B50020FFF75AFF9F
:101E200040F00301002000F019F80B49D1E904014A
:101E3000084305D00849052210310A2000F026F891
:101E4000FFF7D4FEFFF7CEFE0120FFF7A3FEBDE8AB
:101E500010409620FFF7B0BD0000002038B50546C1
:101E60000C460020FFF7A0FE45F020008DF8000092
:101E70008DF801406423022269460348FFF72CF9DC
:101E80000120FFF791FE38BD48000020F8B5044658
:101E900015460E460020FFF787FE44F020008DF81F
:101EA00000006423012269460648FFF715F9642300
:101EB0002A4631460348FFF70FF90120FFF774FE69
:101EC000F8BD0000480000207047F8B5044640689F
:101ED0004FF48273984217D1A0684FF48065B0F533
:101EE000004F01D0A8420FD12068066826F04006B6
:101EF00006606068984207D1A068A84204D10092A9
:101F00000B460022012103E000920B4600228021B3
:101F1000204600F023F8002804D0606D40F0200037
:101F200060650320F8BDF8B515460E460B460092D5
:101F300004460122022100F011F840B93346002284
:101F400080212046009500F009F8002804D0606D3B
:101F500040F0200060650320F8BD00002DE9F84343
:101F60001E46914688460446089DFEF76FFC401BBE
:101F7000351AFEF76BFC074625480068C0F3CB30E6
:101F8000684338E0701C37D0FEF760FCC01BA842E5
:101F900003D215B1009860B32CE02068416821F0AD
:101FA000E00141606068B0F5827F0BD1A068B0F5B8
:101FB000004F02D0B0F5806F04D12068016821F095
:101FC00040010160A06AB0F5005F09D12068016896
:101FD00021F4005101602068016841F40051016062
:101FE000012084F85100002084F850000320BDE84F
:101FF000F8830025401E00902068816838EA0100BF
:1020000004D000214945BDD10020F0E70121F9E7C6
:10201000440000207047FEF71FBC30B58FB0282168
:102020006846FEF703F914210AA8FEF7FFF801211C
:102030000804CDE900100024029402250491CDE9A2
:1020400007504FF4E01009906846FEF779FD08B19B
:1020500072B6FEE70F20CDE90A054FF48060CDE9A6
:102060000C4002210AA80E94FEF78EFC002801D035
:1020700072B6FEE70FB030BD704710B5406A002160
:10208000C185C184FFF7E8F910BD70B5446A2068C6
:10209000406994F84110C0F3C0100025212904D1F3
:1020A00018B1E584204600F062F82068406994F891
:1020B0004210C0F38010222904D118B1E5852046D2
:1020C00000F02EF8606C40F0100060642046FFF7CE
:1020D000C3F970BD10B50146406A096809688906F0
:1020E00016D40021C1840168143151E8002F22F078
:1020F000800241E80023002BF5D101680C3151E842
:10210000002F42F0400241E80023002BF5D110BD22
:10211000FFF7B8FB10BD10B5406AFFF7C1FB10BD5B
:1021200001680C3151E8002F22F4907241E800233D
:10213000002BF5D10168143151E8002F22F0010283
:1021400041E80023002BF5D1016B012909D1016879
:102150000C3151E8002F22F0100241E80023002B3F
:10216000F5D1202180F842100021016370470168F9
:102170000C3151E8002F22F0C00241E80023002B6F
:10218000F5D1202180F84110704708B590F8421031
:10219000222901D0022008BD82684FF480539A4260
:1021A00001D1016921B1816A9A421BD04AB10AE08A
:1021B0000268816A5268C2F308020A80816A891C37
:1021C00008E0026972B10268526802F07F020A7088
:1021D000816A491C8162C18D491E0904090CC185AF
:1021E00003D01BE002685268F1E70168CA6822F078
:1021F0002002CA600168CA6822F48072CA6001685D
:102200004A6922F001024A61202180F8421000212F
:102210004163026B012A03D0FFF7F6FA002008BDE4
:10222000016301680C3151E8002F22F0100241E8EF
:102230000023002BF5D101680A68D20602D50A688E
:1022400049680091818DFFF706F9E7E770B504460C
:1022500000680169E26821F440511143016121697C
:10226000A0680843616908432168CA6841F20C63A9
:102270009A430243CA6020684169A26921F440710F
:10228000114341611E492068884202D1FEF722FCB9
:1022900001E0FEF70FFC00EBC00101EB00126068EB
:1022A00064218000B2FBF0F3B3FBF1F36FF018068A
:1022B0007343B2FBF0F5B2FBF0F605EB8305322376
:1022C00003EB0515B5FBF1F5B6FBF1F605F0F005EE
:1022D00005EB0615B2FBF0F6B2FBF0F0B0FBF1F047
:1022E0006FF01802504306EB800003EB0010B0FBC8
:1022F000F1F0216800F00F002844886070BD0000F4
:10230000003801400148FFF7A9B80000F80000209C
:10231000FEE70907090E002804DB00F1E02080F841
:102320000014704700F00F0000F1E02080F8141D49
:1023300070470000ACB0FEF797FAFFF76EFEFFF7AC
:10234000B1FA6B48416941F00101416140690022E5
:1023500000F00100009011460E20FEF7E3FA0E2077
:10236000FEF7D2FA002211460F20FEF7DBFA0F200B
:10237000FEF7CAFAFFF7E6FA5F485E494FF0000839
:1023800001604FF4E131C0E901180C22C0F80C8063
:10239000C0E90482C0F81880C0F81C80FFF794F9E7
:1023A00008B172B6FEE754493622583915A8FDF730
:1023B0000BFF514C583CE08EADF88A00A06B239087
:1023C000A08FADF89000E08FADF89200112204F1DB
:1023D000400125A8FDF7F8FE94F851008DF8A500FE
:1023E000606D2A90542216A96846FDF7EDFE434F12
:1023F000082210213846159BFFF708FB7820FFF7CD
:10240000A8FC0420FFF7F8FC0020FFF787FC3C4EF7
:102410000120D6E90623FFF7F1FBFFF7FDFCDFF80B
:10242000E4A04FF4006B4FF4805906F10C0500BF97
:10243000FFF7D0FA28B3324804210C30FFF715FC1F
:102440003070287820B1012259463846FEF7F8F955
:10245000687820B1012249463846FEF7F1F9A8789C
:1024600020B10122D1033846FEF7EAF9E87820B11D
:10247000012208215046FEF7E3F9FEF7E7F9B060C4
:1024800022E0FEF7E3F9B168401AB0F5967F1BD958
:102490005FF00004002205F8048059463846FEF734
:1024A000CFF9002249463846FEF7CAF900224FF418
:1024B00000413846FEF7C4F9002208215046FEF7D5
:1024C000BFF9641C042CE5D30D4829781030042290
:1024D000017069784170A9788170E978C17001460E
:1024E0000548FFF793F91420FEF7A8F8A0E70000CD
:1024F0000010024000380140F800002000080140B0
:1025000018000020000C01401112131415160A0BBC
:102510000C0D0E0F10010202030405060708090A3C
:102520000B0C0D0E0F101000000000000000000149
:10253000020304060708090000000001020304006A
:102540006025000800000020480000002801000865
:10255000A825000848000020E0070000440100080A
:10256000000000000000000000000000000000006B
:10257000000000000000000000000000000000005B
:10258000000000000000000000000000000000004B
:10259000E1F0F0F0F0000000010000001000000089
:0825A0000000000000127A00A7
:04000005080000ED02
:00000001FF
