:020000040800F2
:100000004807002089010008C7110008BF10000838
:10001000C5110008F30200082F19000800000000B5
:10002000000000000000000000000000C9180008E7
:10003000F5020008000000007D170008CB1800083A
:10004000A3010008A3010008A3010008A301000800
:10005000A3010008A3010008A3010008A3010008F0
:10006000A3010008A3010008A3010008A3010008E0
:10007000A3010008A3010008A3010008A3010008D0
:10008000A3010008A3010008A3010008A3010008C0
:10009000A3010008A3010008A3010008A3010008B0
:1000A000A3010008A3010008A3010008A3010008A0
:1000B000A3010008A3010008A3010008A301000890
:1000C000A3010008A3010008A3010008A301000880
:1000D000A3010008A3010008A3010008A301000870
:1000E000A3010008A3010008A301000800F002F822
:1000F00000F03AF80AA090E8000C82448344AAF188
:100100000107DA4501D100F02FF8AFF2090EBAE885
:100110000F0013F0010F18BFFB1A43F0010318473B
:100120009C190000BC190000103A24BF78C878C19F
:10013000FAD8520724BF30C830C144BF04680C60ED
:10014000704700000023002400250026103A28BF35
:1001500078C1FBD8520728BF30C148BF0B60704739
:100160001FB51FBD10B510BD00F08AF81146FFF78E
:10017000F7FF01F0EDFB00F0A8F803B4FFF7F2FF82
:1001800003BC00F0AFF80000094880470948004769
:10019000FEE7FEE7FEE7FEE7FEE7FEE7FEE7FEE737
:1001A000FEE7FEE704480549054A064B7047000094
:1001B0002D190008ED000008480100204807002024
:1001C000480300204803002010B5203AC0F00B80FF
:1001D000B1E81850203AA0E81850B1E81850A0E84B
:1001E0001850BFF4F5AF5FEA027C24BFB1E81850A5
:1001F000A0E8185044BF18C918C0BDE810405FEA15
:10020000827C24BF51F8043B40F8043B08BF704790
:10021000D20728BF31F8023B48BF11F8012B28BF95
:1002200020F8023B48BF00F8012B70474FF0000256
:1002300000B5134694469646203922BFA0E80C50DC
:10024000A0E80C50B1F12001BFF4F7AF090728BFB7
:10025000A0E80C5048BF0CC05DF804EB890028BF33
:1002600040F8042B08BF704748BF20F8022B11F05C
:10027000804F18BF00F8012B7047704770477047D8
:10028000754600F02BF8AE4605006946534620F04F
:100290000700854618B020B5FFF784FFBDE8204071
:1002A0004FF000064FF000074FF000084FF0000B32
:1002B00021F00701AC46ACE8C009ACE8C009ACE8E5
:1002C000C009ACE8C0098D46704710B50446AFF3CD
:1002D00000802046BDE81040FFF74FBF0048704740
:1002E000E800002001491820ABBEFEE7260002000E
:1002F0007047FEE77047000070B5044600F008F94B
:100300000546601C02D004480078044400F000F95F
:10031000401BA042FAD370BD280000202DE9F84F01
:10032000DFF8B8910024A9F1040B23460F2709F147
:10033000040AABF1040EC9E00125A5402A40AA42F7
:100340007DD1674ED1F804C0ACEB0608B44532D07D
:1003500014DCBCF1030F3AD009DCBCF1000F2AD049
:10036000BCF1010F1CD0BCF1020F31D11DE0BCF17A
:10037000110F17D0BCF1120F2AD119E0B8F5881F60
:1003800019D006DCB8F5803F15D0B8F5801F1FD115
:1003900011E0B8F5001F0ED0B8F5041F18D10AE01F
:1003A000CB6815E0CB681B1D12E0CB6808330FE06B
:1003B000CB680C330CE08B682BB1012B4FF008039A
:1003C00003D0456104E0042302E0056100E000235E
:1003D000FF2A01D8064601E000F104064FEA840531
:1003E00001D9A5F12005D6F8008007FA05FC28EA16
:1003F0000C0803FA05F548EA0508C6F800804D68C0
:10040000ED0062D5374DAE6946F00106AE61AD69CB
:1004100024F0030605F001050095334D06EB050CAD
:10042000DCF80850A607360F07FA06F825EA080593
:10043000DFF8B880404503D14FF0000817E044E0F2
:10044000DFF8AC80404502D14FF001080FE0DFF843
:10045000A480404502D14FF0020808E0DFF8988000
:10046000404502D14FF0030801E04FF0040808FABC
:1004700006F848EA0508CCF808804D68D9F800600D
:10048000ED024D4601D5164300E096432E604D68BF
:10049000DAF80060AD02554601D5164300E09643F8
:1004A0002E604D68DBF80060AD035D4601D5164354
:1004B00000E096432E604D68DEF80060ED0375465F
:1004C00001D5164300E096432E60641C0D682A4651
:1004D000E5407FF431AFBDE8F88F0000080401402B
:1004E000000011100010024000000140000801400F
:1004F000000C0140001001400014014080680840D9
:1005000000D0012070470AB1016170470904FBE780
:100510000148806870470000280000200248816878
:10052000027811448160704728000020074810B508
:10053000016841F010010160032000F067F80F200E
:1005400000F006F800F024F8002010BD0020024062
:1005500070B50D4D04464FF47A712878B1FBF0F078
:100560000A490968B1FBF0F000F095FD48B9102C7C
:1005700007D200222146501E00F028F800206C60AF
:1005800070BD012070BD0000280000203400002054
:100590000C4808B5816941F001018161816901F070
:1005A00001010091C16941F08051C161C06900F051
:1005B000805000900448416821F0E06141F00071F2
:1005C000416008BD0010024000000140F0B40E4B35
:1005D0001B680C46C3F30223C3F10705042D00D9A1
:1005E0000425191D072901D2002300E0DB1E012686
:1005F00006FA05F1491E214099409E40761E16409C
:100600003143F0BC01F094B90CED00E0064900F074
:10061000070208684FF6FF03184040EA0220034A29
:1006200010430860704700000CED00E00000FA0580
:100630002DE9F0470F46050061D0434E306800F0C9
:100640000700B84209D2306820F007003843306014
:10065000306800F00700B84251D128683B4C810750
:1006600012D5400703D5606840F4E06060602878E8
:10067000000703D5606840F4605060606068A96856
:1006800020F0F000084360602878C00728D0686830
:10069000012810D02168022810D0890700292EDAFD
:1006A000616821F0030101436160FFF731FF80467B
:1006B00041F288390DE021688903EFE78901EDE710
:1006C000FFF726FFA0EB0801494502D90320BDE84A
:1006D000F0876068696800F00C00B0EB810FEFD123
:1006E000306800F00700B8420BD9306820F00700EE
:1006F00038433060306800F00700B84201D0012074
:10070000E5E72878400705D56068E96820F4E060EF
:10071000084360602878000706D56068296920F4DE
:10072000605040EAC100606000F018F86168084A53
:10073000C1F30311515CC8400649086006480068CF
:10074000FFF706FF0020C2E7002002400010024031
:10075000AA1A0008340000202C0000200E4A51681C
:100760000E4801F00C03042B11D0082B0FD10C48BC
:10077000C1F38343C903C05C0AD55168084AC1F379
:100780004041921E515C054A5043B0FBF1F0704766
:1007900004494843704700000010024000127A00EC
:1007A0009A1A000800093D002DE9F84F040070D0A6
:1007B0002078C04DC00749D06868C0F38100012887
:1007C00007D06868C0F38100022809D16868C003B7
:1007D00006D52868800339D560680028E7D035E061
:1007E0006068B0F5803F0BD010B1B0F5A02F11D0EC
:1007F000286820F480302860286820F4802002E0F7
:10080000286840F480302860606890B1FFF780FE6F
:1008100006460AE0286840F480202860F0E700BF20
:10082000FFF776FE801B642873D828688003F7D50D
:100830000CE0FFF76DFE064605E000BFFFF768FE1F
:10084000801B6428F0D828688003F7D420789A4E5B
:1008500080074FF001094FF0000839D5686810F0A3
:100860000C0F07D06868C0F38100022809D16868BE
:10087000C00306D42868800714D52069012808D150
:1008800010E02069B0B1C6F80090FFF741FE0746BE
:1008900005E00AE1FFF73CFEC01B0228C4D8286827
:1008A0008007F7D52868616920F0F80040EAC100A8
:1008B00028600DE0C6F80080FFF72AFE074604E036
:1008C000FFF726FEC01B022823D828688007F7D42C
:1008D000207800072CD57948A169D9B1C0F80090DB
:1008E000FFF716FE074604E0FFF712FEC01B0228C2
:1008F0000FD8686A8007F7D571484FF4FA5100683D
:10090000B0FBF1F0009000BF0098411E0091FAD2B8
:100910000EE080E0C0F80080FFF7FAFD074604E033
:10092000FFF7F6FDC01B022875D8686A8007F7D468
:100930002078400760D5E8690027C00008D4E8693E
:1009400040F08050E861E869012700F08050009095
:100950005C480168C90513D40168834641F480717D
:100960000160FFF7D5FD824606E000BFFFF7D0FD2E
:10097000A0EB0A0064284ED8DBF80000C005F5D5CE
:10098000E06801280AD008B1052813D0286A20F0B1
:1009900001002862286A20F0040002E0286A40F082
:1009A00001002862E06841F2883B98B1FFF7B0FD92
:1009B00082460BE0286A40F004002862EEE700BFA0
:1009C000FFF7A6FDA0EB0A0159455AD8286A80070F
:1009D000F6D50CE0FFF79CFD824605E0FFF798FD99
:1009E000A0EB0A0159454CD8286A8007F6D41FB1FC
:1009F000E86920F08050E861E06988B36968C1F374
:100A00008101022944D00228C6F8608004D0FFF793
:100A10007FFD044638E034E0FFF77AFD074604E046
:100A2000FFF776FDC01B02282BD828688001F7D479
:100A3000206AB0F5803F05D16868A16820F40030D5
:100A400008436860D4E908010843696821F4741117
:100A500008436860C6F86090FFF75AFD044606E058
:100A600025E000BFFFF754FD001B022809D82868C5
:100A70008001F7D51BE000BFFFF74AFD001B0228ED
:100A800002D90320BDE8F88F28688001F4D40EE075
:100A90000128F7D06868226A00F48031914204D1BD
:100AA000616A00F47010884201D00120EAE700205A
:100AB000E8E7000000100240000042428004424289
:100AC000340000200070004070B5040009D0606A56
:100AD000002540B125616561A56294F8510040B1DF
:100AE0000CE0012070BD6068B0F5827FF4D0E56154
:100AF000F2E784F85050204600F040F8022084F8D5
:100B000051002068016821F040010160A08821891E
:100B100000F4827001F404410843A18901F40061EA
:100B20000843217C01F002010843217D01F001010D
:100B30000843218B01F400710843217F01F0380143
:100B4000084394F8201001F080010843218D01F43E
:100B50000051084321680860A069042101EA10409F
:100B6000216848602068C16921F40061C161656540
:100B7000012084F85100002070BD000030B585B020
:100B8000002400940194029403940068144988425C
:100B900023D11448816941F480518161816901F454
:100BA00080510491816941F00401816180690E4D99
:100BB00000F004000490A020009002200190032087
:100BC000039069462846FFF7A9FB4020CDE90004C1
:100BD000694628460294FFF7A1FB05B030BD00002E
:100BE0000030014000100240000801402DE9F84F9C
:100BF000044690F851001D4616460F46012838D18C
:100C000060684FF00408B0F5827F01D1A06830B36E
:100C1000FFF77EFC8246002F75D0002E73D094F82B
:100C20005000012825D04FF0010984F8509084F835
:100C300051804FF00008C4F85480A763A687E68768
:100C4000C4F83080A4F83480A4F83680C4F840801A
:100C5000C4F84480A068B0F5004F0CD015E084F8CB
:100C60005180009313460A46204600F01CF9BDE867
:100C7000F88F0220FBE72068016821F04001016045
:100C80002068016821F480410160206801684906FC
:100C900003D4016841F040010160E068C0B134E074
:100CA00020688168C90709D0007BA16B0870A06B20
:100CB000401CA063E08F401EE08709E0FFF728FC9E
:100CC000A0EB0A00A84202D3681C01D032E085B331
:100CD000E08F0028E4D11BE020688168C90709D0B3
:100CE000C068A16B0880A06B801CA063E08F401ED1
:100CF000E0870AE0FFF70CFCA0EB0A00A84203D350
:100D0000681C02D016E012E09DB1E08F0028E3D10C
:100D100052462946204600F032FD08B12020606589
:100D200084F8519084F85080606D00289FD0012095
:100D30009DE7FFE784F8519084F85080032096E700
:100D40002DE9F84F984616468A460446FFF7E0FB21
:100D5000814694F8510001281ED1BAF1000F73D0DA
:100D6000002E71D094F85000012815D0012784F886
:100D70005070032084F8510000256565C4F830A048
:100D8000A686E686A563A587E58765642564A068D1
:100D9000B0F5004F03D00CE00220BDE8F88F2068CA
:100DA000016821F0400101602068016841F4804140
:100DB000016020680168490603D4016841F04001E0
:100DC0000160E068B0F5006F606803D048B3012EA1
:100DD00027D047E008B1012E1FD1206B2168008881
:100DE000C86006E020688168890709D5216B0988F9
:100DF000C160206B801C2063E08E401EE0860CE00A
:100E0000FFF786FBA0EB0901414503D3B8F1FF3F93
:100E100003D035E0B8F1000F32D0E08E0028E1D1E8
:100E200023E0206B21680078087306E02068816861
:100E300089070AD5216B09780173206B401C206358
:100E4000E08E401EE0860DE02BE0FFF761FBA0EB9B
:100E50000901414503D3B8F1FF3F03D010E0B8F1D9
:100E6000000F0DD0E08E0028E0D14A4641462046D2
:100E700000F0B3FC08B120206065A06830B109E043
:100E800084F8517084F85050032086E72068C168C8
:100E90008068009084F8517004F8505F6068002802
:100EA000F3D0012079E72DE9FF4F81B01D4693462D
:100EB00004464FF001090E9EFFF72AFB074694F8FF
:100EC00051006168012806D0B1F5827F3CD1A1684C
:100ED000C9BB042838D10298002871D0BBF1000F9B
:100EE000FBD0002DF9D094F8500001282CD04FF001
:100EF000010A84F850A094F85100042802D005207B
:100F000084F851004FF00008C4F85480C4F838B099
:100F1000E587A58702992163E586A586C4F8408008
:100F2000C4F8448020680168490603D4016841F090
:100F300040010160E068B0F5006F606808D0F0B370
:100F4000012D49D081E0FFE7022005B0BDE8F08F18
:100F500008B1012D39D1206B21680088C860206B51
:100F6000801C2063E08E401EE0862EE020688168B1
:100F700089070FD5E18E69B1B9F1010F0AD1216B53
:100F80000988C160206B801C2063E08E401EE086D3
:100F90004FF0000920688168C9070CD0E18F51B17A
:100FA000C068A16B0880A06B801CA063E08F401E0E
:100FB000E0874FF00109FFF7ABFAC01B01E00BE03F
:100FC00067E0B04201D3701C50D1E08E0028CDD133
:100FD000E08F0028CAD13EE0206B216800780873BA
:100FE000206B401C2063E08E401EE0862DE02068D0
:100FF000816889070FD5E18E69B1B9F1010F0AD176
:10100000216B09780173206B401C2063E08E401E29
:10101000E0864FF0000920688168C9070CD0E18F95
:1010200051B1C068A16B0870A06B401CA063E08F39
:10103000401EE0874FF00109FFF76AFAC01BB0427B
:1010400002D3701C01D011E086B1E08E0028CED111
:10105000E08F0028CBD13A463146204600F0BDFB58
:1010600050B12020606584F8508012E084F851A0CF
:1010700084F85080032068E7A06818B92068C16828
:101080008068009084F851A084F85080606D00283A
:10109000F1D0012059E710B5401EB0F1807F01D397
:1010A000012010BD4FF0E02460610F21601700F0B7
:1010B0003FFC0020A06107202061002010BDFEE75A
:1010C0002DE9F04385B000252A4800950195029549
:1010D0000395816941F020018161816901F020015E
:1010E0000491816941F004018161816901F0040189
:1010F0000491816941F0080181618069DFF878908D
:1011000000F00800049000224FF48C714846FFF76D
:10111000FAF9DFF868804FF47047002239464046FC
:10112000FFF7F1F9182001260224CDE90006CDE9E8
:10113000025469464846FFF7F1F840F60340CDE90E
:101140000005694602944046FFF7E8F80097CDE9AC
:101150000164694640460394FFF7E0F8E00100901F
:10116000CDE90164694648460394FFF7D7F805B016
:10117000BDE8F0830010024000080140000C01406F
:101180000F4810B50D4901604FF482714160002194
:101190008160C1604FF400720161C0E90512202234
:1011A000C0E90721416281620A21C162FFF78CFC1C
:1011B000002801D072B6FEE710BD000000300140EB
:1011C00090000020FEE7FEE708B5002000F006F9D9
:1011D00050208DF8000073208DF801006423022256
:1011E00069460348FFF7ACFD012000F0F7F808BDA1
:1011F000380000200449054A0968B1FBF2F1414377
:10120000491EFDD27047000034000020C0C62D00EA
:1012100070B5054600F00BF90446C0F380166EB1B8
:1012200015B1C4F3420028704021072000F070FA85
:10123000A00603D52021072000F06AFA304670BDD1
:101240000FB47CB514460D460646582209A95C48E1
:10125000FEF7BAFF5B4B0120DE60DD801C8100F0F1
:10126000BDF8002000F0B0F80520FFF745F8082190
:10127000002000F04DFA3F21012000F049FA03213F
:10128000022000F045FA0321084600F041FA03214C
:10129000042000F03DFA0221052000F039FA0F2168
:1012A000062000F035FA0E21072000F031FA002167
:1012B000082000F02DFA0021092000F029FAE72487
:1012C0008DF803408DF802408DF801408DF8044000
:1012D0008DF80040052269460A2000F031FAC2204C
:1012E0008DF803008DF802008DF801008DF80400E0
:1012F0008DF80000052269460B2000F021FAC32179
:101300000C2000F005FAC4210D2000F001FAC521DF
:101310000E2000F0FDF9C6210F2000F0F9F98DF83C
:1013200003408DF802408DF801408DF804408DF89F
:10133000004005226946102000F002FA0021112029
:1013400000F0E6F90021122000F0E2F9002113205C
:1013500000F0DEF90021142000F0DAF90021152058
:1013600000F0D6F90021162000F0D2F9FFF72CFF8B
:1013700000211C2000F0CCF900211D2000F0C8F94C
:101380000F21084600F030F9032000F007F9002093
:1013900000F0D6F8022000F0B8F800F029F820207C
:1013A00000F01AF900F0A6F84C2000F0C2F800F0A6
:1013B00037F800F031F800F053F87CBC5DF814FB0E
:1013C0003800002000000020020003480189C068A6
:1013D00000D00122FFF797B8000000200200034868
:1013E000C188C06800D00122FFF78DB8000000203E
:1013F00010B51D2000F040F820F004011D2000F081
:1014000087F900211C2000F083F902490020C870F0
:1014100010BD000000000020FF21E22000F078B99C
:10142000FF21E12000F074B9602000F025B807200A
:1014300000F022B813B5052269460A2000F080F9B1
:1014400005226946102000F07BF9044881782029A4
:1014500000D32021112000F05BF91CBD000000200A
:1014600010B5002000F008F820F00201BDE810409F
:10147000002000F04DB9000038B504460020FFF709
:10148000ADFF04F01F008DF80000642301226946BF
:101490000848FFF755FC6423012206480DF10101BD
:1014A000FFF7A4FB9DF801400120FFF797FF2046BE
:1014B00038BD000038000020F8B5044615460E4639
:1014C0000020FFF78BFF04F01F008DF8000064235D
:1014D000012269460648FFF733FC64232A46314659
:1014E0000348FFF783FB0120FFF778FFF8BD0000FA
:1014F000380000207021072000F00AB908B13F2110
:1015000000E00021012000F003B910B504460020DE
:10151000FFF7B2FF20F00C011CB1012C06D041F006
:101520000C01BDE81040002000F0F2B841F00801C5
:10153000F7E77F2800D37F200146052000F0E8B8B8
:101540002DE9F04107464FF000080620FFF794FF11
:10155000114D002620F028046E71022F0ED0012FAD
:1015600010D06E712146062000F0D2F80620FFF759
:1015700083FFA0420BD14FF0010809E06E7144F0E7
:101580002004EFE70120687144F00804EAE76E7177
:101590004046BDE8F08100000000002010B5044680
:1015A0000620FFF769FF20F00601032C0DD0022C66
:1015B00005D0012C06D054B1042C06D007E041F030
:1015C000040104E041F0020101E041F00601BDE840
:1015D0001040062000F09CB8202800D320200149AC
:1015E000887070470000002000F00F0060F31F11AA
:1015F000042000F08DB870B505460C460020FFF7BA
:10160000E3FE0020FFF738FF20F0010040F0020168
:10161000002000F07DF80120FFF7D6FE9620FFF7AE
:10162000E9FD2146284600F057F80120FFF7CCFEDF
:101630000F20FFF7DFFDBDE870400020FFF7C4BEBC
:101640002DE9F04115460E460446FFF7F0FE074629
:10165000002020707021072000F05AF8C7F34010D6
:101660002070C7F300103070C7F380102870BDE8F9
:10167000F08100003EB50C460546FFF73BFF2146D2
:101680002846FFF7B8FFFEF743FF0446012201A9F1
:101690000820FFF711FFFFF7CAFE10F0300F04D14A
:1016A000FEF736FF001B0A28F0D30A4A02A9684653
:1016B000FFF7C6FF074C9DF80050207810B1FFF7E8
:1016C000B3FE60700020FFF7A3FDFFF7A9FE2846D8
:1016D0003EBD00000000002038B505460C46002045
:1016E000FFF77CFEA0208DF80000642301226946EC
:1016F0000648FFF725FB6423224629460348FFF7E7
:101700001FFB0120FFF76AFE38BD000038000020F3
:1017100038B505460C460020FFF760FE45F0200076
:101720008DF800008DF801406423022269460348C9
:10173000FFF706FB0120FFF751FE38BD38000020FF
:10174000F8B5044615460E460020FFF747FE44F064
:1017500020008DF800006423012269460648FFF747
:10176000EFFA64232A4631460348FFF7E9FA0120DD
:10177000FFF734FEF8BD0000380000207047F8B5D0
:10178000044640684FF48273984217D1A0684FF422
:101790008065B0F5004F01D0A8420FD120680668DF
:1017A00026F0400606606068984207D1A068A8420B
:1017B00004D100920B460022012103E000920B4667
:1017C00000228021204600F023F8002804D0606D1C
:1017D00040F0200060650320F8BDF8B515460E46C0
:1017E0000B46009204460122022100F011F840B994
:1017F0003346002280212046009500F009F8002899
:1018000004D0606D40F0200060650320F8BD00004A
:101810002DE9F8431E46914688460446089DFEF78A
:1018200077FE401B351AFEF773FE07462548006811
:10183000C0F3CB30684338E0701C37D0FEF768FE49
:10184000C01BA84203D215B1009860B32CE02068F9
:10185000416821F0E00141606068B0F5827F0BD102
:10186000A068B0F5004F02D0B0F5806F04D12068B9
:10187000016821F040010160A06AB0F5005F09D164
:101880002068016821F4005101602068016841F47A
:1018900000510160012084F85100002084F85000BC
:1018A0000320BDE8F8830025401E00902068816871
:1018B00038EA010004D000214945BDD10020F0E7FD
:1018C0000121F9E7340000207047FEF727BE30B54C
:1018D0008FB028216846FEF7A9FC14210AA8FEF75C
:1018E000A5FC01210804CDE9001000240294022582
:1018F0000491CDE907504FF4E01009906846FEF7D7
:1019000053FF08B172B6FEE70F20CDE90A054FF488
:101910008060CDE90C4002210AA80E94FEF788FEF3
:10192000002801D072B6FEE70FB030BD7047FEE769
:101930000907090E002804DB00F1E02080F80014FC
:10194000704700F00F0000F1E02080F8141D704790
:10195000ACB0FEF7EBFDFFF7BAFFFFF7B1FBFFF707
:101960000FFC3622484915A8FEF72EFC464CE08EA7
:10197000ADF88A00A06B2390A08FADF89000E08FA7
:10198000ADF89200112204F1400125A8FEF71CFCDD
:1019900094F851008DF8A500606D2A90542216A984
:1019A0006846FEF711FC082210213848159BFFF706
:1019B00047FC0420FFF710FE3549D1E90201FFF78B
:1019C00039FD0020FFF79AFD7820FFF7B2FDDFF820
:1019D000C090DFF8C0B009F101094FF0000A00BF64
:1019E0004FF400615D465846FEF788FD04464FF40B
:1019F00080612846FEF782FD074602212846FEF751
:101A00007DFD064601212846FEF778FD44EA0701E0
:101A10000546314329435FEA01081CD014B1012077
:101A200089F8000017B1012189F8011016B10120D1
:101A300089F8020015B1012089F803001448042137
:101A4000401CFFF717FE1249087020B10122110354
:101A50005846FEF758FD0CB989F800A00FB989F86F
:101A600001A00EB989F802A00DB989F803A0B8F158
:101A7000000FB5D106490022584681F800A04FF466
:101A80008051FEF740FDABE79000002000080140C8
:101A900018000020000C01400102020304050607A3
:101AA00008090A0B0C0D0E0F1010000000000000BA
:101AB000000001020304060708090000DC1A000800
:101AC000000000203800000028010008141B000856
:101AD000380000201007000044010008000000004A
:101AE00000000000000000000000000000000000F6
:101AF000000000000000000000000000E1F0F0F035
:101B0000F0000000010000001000000000000000D4
:041B100000127A0045
:04000005080000ED02
:00000001FF
